{"abi":[{"type":"constructor","inputs":[{"name":"_usdc","type":"address","internalType":"address"},{"name":"_oracle","type":"address","internalType":"address"}],"stateMutability":"nonpayable"},{"type":"function","name":"calculatePayout","inputs":[{"name":"goalId","type":"uint256","internalType":"uint256"},{"name":"user","type":"address","internalType":"address"}],"outputs":[{"name":"","type":"uint256","internalType":"uint256"}],"stateMutability":"view"},{"type":"function","name":"claimPayout","inputs":[{"name":"goalId","type":"uint256","internalType":"uint256"}],"outputs":[],"stateMutability":"nonpayable"},{"type":"function","name":"createGoal","inputs":[{"name":"name","type":"string","internalType":"string"},{"name":"targetMiles","type":"uint256","internalType":"uint256"},{"name":"minStake","type":"uint256","internalType":"uint256"},{"name":"maxStake","type":"uint256","internalType":"uint256"},{"name":"startTime","type":"uint256","internalType":"uint256"},{"name":"deadline","type":"uint256","internalType":"uint256"}],"outputs":[{"name":"goalId","type":"uint256","internalType":"uint256"}],"stateMutability":"nonpayable"},{"type":"function","name":"deactivateGoal","inputs":[{"name":"goalId","type":"uint256","internalType":"uint256"}],"outputs":[],"stateMutability":"nonpayable"},{"type":"function","name":"getGoal","inputs":[{"name":"goalId","type":"uint256","internalType":"uint256"}],"outputs":[{"name":"","type":"tuple","internalType":"struct GoalStakeV2.Goal","components":[{"name":"id","type":"uint256","internalType":"uint256"},{"name":"name","type":"string","internalType":"string"},{"name":"targetMiles","type":"uint256","internalType":"uint256"},{"name":"minStake","type":"uint256","internalType":"uint256"},{"name":"maxStake","type":"uint256","internalType":"uint256"},{"name":"startTime","type":"uint256","internalType":"uint256"},{"name":"deadline","type":"uint256","internalType":"uint256"},{"name":"active","type":"bool","internalType":"bool"},{"name":"settled","type":"bool","internalType":"bool"},{"name":"totalStaked","type":"uint256","internalType":"uint256"},{"name":"participantCount","type":"uint256","internalType":"uint256"}]}],"stateMutability":"view"},{"type":"function","name":"getGoalParticipants","inputs":[{"name":"goalId","type":"uint256","internalType":"uint256"}],"outputs":[{"name":"","type":"address[]","internalType":"address[]"}],"stateMutability":"view"},{"type":"function","name":"getGoalSettlement","inputs":[{"name":"goalId","type":"uint256","internalType":"uint256"}],"outputs":[{"name":"_totalWinnerStakes","type":"uint256","internalType":"uint256"},{"name":"_loserPool","type":"uint256","internalType":"uint256"},{"name":"_settled","type":"bool","internalType":"bool"}],"stateMutability":"view"},{"type":"function","name":"getParticipant","inputs":[{"name":"goalId","type":"uint256","internalType":"uint256"},{"name":"user","type":"address","internalType":"address"}],"outputs":[{"name":"","type":"tuple","internalType":"struct GoalStakeV2.Participant","components":[{"name":"user","type":"address","internalType":"address"},{"name":"stake","type":"uint256","internalType":"uint256"},{"name":"actualMiles","type":"uint256","internalType":"uint256"},{"name":"verified","type":"bool","internalType":"bool"},{"name":"succeeded","type":"bool","internalType":"bool"},{"name":"claimed","type":"bool","internalType":"bool"}]}],"stateMutability":"view"},{"type":"function","name":"getUserGoals","inputs":[{"name":"user","type":"address","internalType":"address"}],"outputs":[{"name":"","type":"uint256[]","internalType":"uint256[]"}],"stateMutability":"view"},{"type":"function","name":"goalCount","inputs":[],"outputs":[{"name":"","type":"uint256","internalType":"uint256"}],"stateMutability":"view"},{"type":"function","name":"goalParticipants","inputs":[{"name":"","type":"uint256","internalType":"uint256"},{"name":"","type":"uint256","internalType":"uint256"}],"outputs":[{"name":"","type":"address","internalType":"address"}],"stateMutability":"view"},{"type":"function","name":"goals","inputs":[{"name":"","type":"uint256","internalType":"uint256"}],"outputs":[{"name":"id","type":"uint256","internalType":"uint256"},{"name":"name","type":"string","internalType":"string"},{"name":"targetMiles","type":"uint256","internalType":"uint256"},{"name":"minStake","type":"uint256","internalType":"uint256"},{"name":"maxStake","type":"uint256","internalType":"uint256"},{"name":"startTime","type":"uint256","internalType":"uint256"},{"name":"deadline","type":"uint256","internalType":"uint256"},{"name":"active","type":"bool","internalType":"bool"},{"name":"settled","type":"bool","internalType":"bool"},{"name":"totalStaked","type":"uint256","internalType":"uint256"},{"name":"participantCount","type":"uint256","internalType":"uint256"}],"stateMutability":"view"},{"type":"function","name":"joinGoal","inputs":[{"name":"goalId","type":"uint256","internalType":"uint256"},{"name":"stake","type":"uint256","internalType":"uint256"}],"outputs":[],"stateMutability":"nonpayable"},{"type":"function","name":"loserPool","inputs":[{"name":"","type":"uint256","internalType":"uint256"}],"outputs":[{"name":"","type":"uint256","internalType":"uint256"}],"stateMutability":"view"},{"type":"function","name":"oracle","inputs":[],"outputs":[{"name":"","type":"address","internalType":"address"}],"stateMutability":"view"},{"type":"function","name":"owner","inputs":[],"outputs":[{"name":"","type":"address","internalType":"address"}],"stateMutability":"view"},{"type":"function","name":"participants","inputs":[{"name":"","type":"uint256","internalType":"uint256"},{"name":"","type":"address","internalType":"address"}],"outputs":[{"name":"user","type":"address","internalType":"address"},{"name":"stake","type":"uint256","internalType":"uint256"},{"name":"actualMiles","type":"uint256","internalType":"uint256"},{"name":"verified","type":"bool","internalType":"bool"},{"name":"succeeded","type":"bool","internalType":"bool"},{"name":"claimed","type":"bool","internalType":"bool"}],"stateMutability":"view"},{"type":"function","name":"setOracle","inputs":[{"name":"_oracle","type":"address","internalType":"address"}],"outputs":[],"stateMutability":"nonpayable"},{"type":"function","name":"settleGoal","inputs":[{"name":"goalId","type":"uint256","internalType":"uint256"}],"outputs":[],"stateMutability":"nonpayable"},{"type":"function","name":"totalWinnerStakes","inputs":[{"name":"","type":"uint256","internalType":"uint256"}],"outputs":[{"name":"","type":"uint256","internalType":"uint256"}],"stateMutability":"view"},{"type":"function","name":"transferOwnership","inputs":[{"name":"newOwner","type":"address","internalType":"address"}],"outputs":[],"stateMutability":"nonpayable"},{"type":"function","name":"usdc","inputs":[],"outputs":[{"name":"","type":"address","internalType":"contract IERC20"}],"stateMutability":"view"},{"type":"function","name":"userGoals","inputs":[{"name":"","type":"address","internalType":"address"},{"name":"","type":"uint256","internalType":"uint256"}],"outputs":[{"name":"","type":"uint256","internalType":"uint256"}],"stateMutability":"view"},{"type":"function","name":"verifyParticipant","inputs":[{"name":"goalId","type":"uint256","internalType":"uint256"},{"name":"user","type":"address","internalType":"address"},{"name":"actualMiles","type":"uint256","internalType":"uint256"}],"outputs":[],"stateMutability":"nonpayable"},{"type":"event","name":"GoalCreated","inputs":[{"name":"goalId","type":"uint256","indexed":true,"internalType":"uint256"},{"name":"name","type":"string","indexed":false,"internalType":"string"},{"name":"targetMiles","type":"uint256","indexed":false,"internalType":"uint256"},{"name":"minStake","type":"uint256","indexed":false,"internalType":"uint256"},{"name":"maxStake","type":"uint256","indexed":false,"internalType":"uint256"},{"name":"startTime","type":"uint256","indexed":false,"internalType":"uint256"},{"name":"deadline","type":"uint256","indexed":false,"internalType":"uint256"}],"anonymous":false},{"type":"event","name":"GoalJoined","inputs":[{"name":"goalId","type":"uint256","indexed":true,"internalType":"uint256"},{"name":"user","type":"address","indexed":true,"internalType":"address"},{"name":"stake","type":"uint256","indexed":false,"internalType":"uint256"}],"anonymous":false},{"type":"event","name":"GoalSettled","inputs":[{"name":"goalId","type":"uint256","indexed":true,"internalType":"uint256"},{"name":"totalWinnerStakes","type":"uint256","indexed":false,"internalType":"uint256"},{"name":"loserPool","type":"uint256","indexed":false,"internalType":"uint256"},{"name":"winnerCount","type":"uint256","indexed":false,"internalType":"uint256"},{"name":"loserCount","type":"uint256","indexed":false,"internalType":"uint256"}],"anonymous":false},{"type":"event","name":"ParticipantVerified","inputs":[{"name":"goalId","type":"uint256","indexed":true,"internalType":"uint256"},{"name":"user","type":"address","indexed":true,"internalType":"address"},{"name":"actualMiles","type":"uint256","indexed":false,"internalType":"uint256"},{"name":"succeeded","type":"bool","indexed":false,"internalType":"bool"}],"anonymous":false},{"type":"event","name":"PayoutClaimed","inputs":[{"name":"goalId","type":"uint256","indexed":true,"internalType":"uint256"},{"name":"user","type":"address","indexed":true,"internalType":"address"},{"name":"stakeReturned","type":"uint256","indexed":false,"internalType":"uint256"},{"name":"bonus","type":"uint256","indexed":false,"internalType":"uint256"},{"name":"totalPayout","type":"uint256","indexed":false,"internalType":"uint256"}],"anonymous":false},{"type":"error","name":"AlreadyClaimed","inputs":[]},{"type":"error","name":"AlreadyJoined","inputs":[]},{"type":"error","name":"AlreadyVerified","inputs":[]},{"type":"error","name":"DeadlineNotReached","inputs":[]},{"type":"error","name":"DidNotSucceed","inputs":[]},{"type":"error","name":"GoalNotActive","inputs":[]},{"type":"error","name":"GoalNotSettled","inputs":[]},{"type":"error","name":"NotAllVerified","inputs":[]},{"type":"error","name":"NotOracle","inputs":[]},{"type":"error","name":"NotOwner","inputs":[]},{"type":"error","name":"NotParticipant","inputs":[]},{"type":"error","name":"StakeTooHigh","inputs":[]},{"type":"error","name":"StakeTooLow","inputs":[]}],"bytecode":{"object":"0x60a060405234801562000010575f80fd5b50604051620033b2380380620033b2833981810160405281019062000036919062000156565b8173ffffffffffffffffffffffffffffffffffffffff1660808173ffffffffffffffffffffffffffffffffffffffff1681525050805f806101000a81548173ffffffffffffffffffffffffffffffffffffffff021916908373ffffffffffffffffffffffffffffffffffffffff1602179055503360015f6101000a81548173ffffffffffffffffffffffffffffffffffffffff021916908373ffffffffffffffffffffffffffffffffffffffff16021790555050506200019b565b5f80fd5b5f73ffffffffffffffffffffffffffffffffffffffff82169050919050565b5f6200012082620000f5565b9050919050565b620001328162000114565b81146200013d575f80fd5b50565b5f81519050620001508162000127565b92915050565b5f80604083850312156200016f576200016e620000f1565b5b5f6200017e8582860162000140565b9250506020620001918582860162000140565b9150509250929050565b6080516131f0620001c25f395f8181610fa0015281816114d401526119a801526131f05ff3fe608060405234801561000f575f80fd5b5060043610610156575f3560e01c80637adbf973116100c1578063b6b3eedf1161007a578063b6b3eedf1461041b578063b726be7f1461044b578063df6ed6cb1461047b578063e51beb2f146104ab578063e75f6ca7146104dd578063f2fde38b146104fb57610156565b80637adbf9731461035b5780637dc0d1d0146103775780638a69614e146103955780638da5cb5b146103b1578063937895c4146103cf578063a7b75eab146103eb57610156565b806335742c631161011357806335742c631461024357806335f3ad7a146102735780633e413bee146102a3578063451c25ef146102c157806361449ca2146102f1578063708806381461032b57610156565b806302e060c61461015a578063062841971461018f5780630d12a5f0146101ab578063160c3fca146101db5780632596ee91146101f75780633147b1d114610227575b5f80fd5b610174600480360381019061016f919061210f565b610517565b60405161018696959493929190612185565b60405180910390f35b6101a960048036038101906101a491906121e4565b61059f565b005b6101c560048036038101906101c09190612270565b6108d1565b6040516101d2919061231a565b60405180910390f35b6101f560048036038101906101f09190612333565b610b92565b005b610211600480360381019061020c91906121e4565b610ded565b60405161021e919061231a565b60405180910390f35b610241600480360381019061023c9190612383565b610e02565b005b61025d600480360381019061025891906123c1565b611320565b60405161026a91906124a3565b60405180910390f35b61028d6004803603810190610288919061210f565b6113b3565b60405161029a919061255a565b60405180910390f35b6102ab6114d2565b6040516102b891906125ce565b60405180910390f35b6102db60048036038101906102d691906121e4565b6114f6565b6040516102e8919061231a565b60405180910390f35b61030b600480360381019061030691906121e4565b61150b565b6040516103229b9a99989796959493929190612671565b60405180910390f35b610345600480360381019061034091906121e4565b611600565b60405161035291906127c9565b60405180910390f35b610375600480360381019061037091906123c1565b61169c565b005b61037f611764565b60405161038c91906127e9565b60405180910390f35b6103af60048036038101906103aa91906121e4565b611787565b005b6103b9611ade565b6040516103c691906127e9565b60405180910390f35b6103e960048036038101906103e491906121e4565b611b03565b005b61040560048036038101906104009190612383565b611bb7565b60405161041291906127e9565b60405180910390f35b61043560048036038101906104309190612802565b611bff565b604051610442919061231a565b60405180910390f35b6104656004803603810190610460919061210f565b611c2a565b604051610472919061231a565b60405180910390f35b610495600480360381019061049091906121e4565b611d75565b6040516104a29190612974565b60405180910390f35b6104c560048036038101906104c091906121e4565b611eb5565b6040516104d493929190612994565b60405180910390f35b6104e5611f0b565b6040516104f2919061231a565b60405180910390f35b610515600480360381019061051091906123c1565b611f11565b005b6004602052815f5260405f20602052805f5260405f205f9150915050805f015f9054906101000a900473ffffffffffffffffffffffffffffffffffffffff1690806001015490806002015490806003015f9054906101000a900460ff16908060030160019054906101000a900460ff16908060030160029054906101000a900460ff16905086565b5f8054906101000a900473ffffffffffffffffffffffffffffffffffffffff1673ffffffffffffffffffffffffffffffffffffffff163373ffffffffffffffffffffffffffffffffffffffff1614610623576040517f1bc2178f00000000000000000000000000000000000000000000000000000000815260040160405180910390fd5b5f60035f8381526020019081526020015f2090508060070160019054906101000a900460ff1615610680576040517f18bf314900000000000000000000000000000000000000000000000000000000815260040160405180910390fd5b80600601544210156106be576040517f66ec4ee600000000000000000000000000000000000000000000000000000000815260040160405180910390fd5b5f60055f8481526020019081526020015f2090505f805f805f5b8580549050811015610825575f60045f8a81526020019081526020015f205f88848154811061070a576107096129c9565b5b905f5260205f20015f9054906101000a900473ffffffffffffffffffffffffffffffffffffffff1673ffffffffffffffffffffffffffffffffffffffff1673ffffffffffffffffffffffffffffffffffffffff1681526020019081526020015f209050806003015f9054906101000a900460ff166107b4576040517ffa275c1f00000000000000000000000000000000000000000000000000000000815260040160405180910390fd5b8060030160019054906101000a900460ff16156107f0578060010154866107db9190612a23565b955083806107e890612a56565b945050610811565b8060010154856108009190612a23565b9450828061080d90612a56565b9350505b50808061081d90612a56565b9150506106d8565b5060018660070160016101000a81548160ff0219169083151502179055505f866007015f6101000a81548160ff0219169083151502179055508360075f8981526020019081526020015f20819055508260085f8981526020019081526020015f2081905550867f910504aa2410ba1f19befe8c8fcd09498f719e20a48d33b84bd13b824c71ca4f858585856040516108c09493929190612a9d565b60405180910390a250505050505050565b5f60015f9054906101000a900473ffffffffffffffffffffffffffffffffffffffff1673ffffffffffffffffffffffffffffffffffffffff163373ffffffffffffffffffffffffffffffffffffffff1614610958576040517f30cd747100000000000000000000000000000000000000000000000000000000815260040160405180910390fd5b82821161099a576040517f08c379a000000000000000000000000000000000000000000000000000000000815260040161099190612b2a565b60405180910390fd5b848410156109dd576040517f08c379a00000000000000000000000000000000000000000000000000000000081526004016109d490612b92565b60405180910390fd5b60025f8154809291906109ef90612a56565b91905055905060405180610160016040528082815260200189898080601f0160208091040260200160405190810160405280939291908181526020018383808284375f81840152601f19601f8201169050808301925050505050505081526020018781526020018681526020018581526020018481526020018381526020016001151581526020015f151581526020015f81526020015f81525060035f8381526020019081526020015f205f820151815f01556020820151816001019081610ab79190612dce565b5060408201518160020155606082015181600301556080820151816004015560a0820151816005015560c0820151816006015560e0820151816007015f6101000a81548160ff0219169083151502179055506101008201518160070160016101000a81548160ff02191690831515021790555061012082015181600801556101408201518160090155905050807f9b3d77862c18bc0e1792ba33947c5ef431ec4cc9ab8a65f0889200ae1b887a7989898989898989604051610b7f9796959493929190612ed7565b60405180910390a2979650505050505050565b5f8054906101000a900473ffffffffffffffffffffffffffffffffffffffff1673ffffffffffffffffffffffffffffffffffffffff163373ffffffffffffffffffffffffffffffffffffffff1614610c16576040517f1bc2178f00000000000000000000000000000000000000000000000000000000815260040160405180910390fd5b5f60035f8581526020019081526020015f2090505f60045f8681526020019081526020015f205f8573ffffffffffffffffffffffffffffffffffffffff1673ffffffffffffffffffffffffffffffffffffffff1681526020019081526020015f2090508160060154421015610cb7576040517f66ec4ee600000000000000000000000000000000000000000000000000000000815260040160405180910390fd5b5f816001015403610cf4576040517fe438f8ce00000000000000000000000000000000000000000000000000000000815260040160405180910390fd5b806003015f9054906101000a900460ff1615610d3c576040517f118fd7b800000000000000000000000000000000000000000000000000000000815260040160405180910390fd5b6001816003015f6101000a81548160ff02191690831515021790555082816002018190555081600201548310158160030160016101000a81548160ff0219169083151502179055508373ffffffffffffffffffffffffffffffffffffffff16857f1c726a6911585e5f3d3a7ebe5336f35304fd988006d06d4f31ce3ba431f78581858460030160019054906101000a900460ff16604051610dde929190612f3f565b60405180910390a35050505050565b6007602052805f5260405f205f915090505481565b5f60035f8481526020019081526020015f209050806007015f9054906101000a900460ff16610e5d576040517f7cc648f100000000000000000000000000000000000000000000000000000000815260040160405180910390fd5b80600601544210610e9a576040517f7cc648f100000000000000000000000000000000000000000000000000000000815260040160405180910390fd5b5f60045f8581526020019081526020015f205f3373ffffffffffffffffffffffffffffffffffffffff1673ffffffffffffffffffffffffffffffffffffffff1681526020019081526020015f20600101541115610f22576040517e3b268200000000000000000000000000000000000000000000000000000000815260040160405180910390fd5b8060030154821015610f60576040517f1cc3b37b00000000000000000000000000000000000000000000000000000000815260040160405180910390fd5b8060040154821115610f9e576040517f735b16e300000000000000000000000000000000000000000000000000000000815260040160405180910390fd5b7f000000000000000000000000000000000000000000000000000000000000000073ffffffffffffffffffffffffffffffffffffffff166323b872dd3330856040518463ffffffff1660e01b8152600401610ffb93929190612f66565b6020604051808303815f875af1158015611017573d5f803e3d5ffd5b505050506040513d601f19601f8201168201806040525081019061103b9190612fc5565b61107a576040517f08c379a00000000000000000000000000000000000000000000000000000000081526004016110719061303a565b60405180910390fd5b6040518060c001604052803373ffffffffffffffffffffffffffffffffffffffff1681526020018381526020015f81526020015f151581526020015f151581526020015f151581525060045f8581526020019081526020015f205f3373ffffffffffffffffffffffffffffffffffffffff1673ffffffffffffffffffffffffffffffffffffffff1681526020019081526020015f205f820151815f015f6101000a81548173ffffffffffffffffffffffffffffffffffffffff021916908373ffffffffffffffffffffffffffffffffffffffff16021790555060208201518160010155604082015181600201556060820151816003015f6101000a81548160ff02191690831515021790555060808201518160030160016101000a81548160ff02191690831515021790555060a08201518160030160026101000a81548160ff02191690831515021790555090505060055f8481526020019081526020015f2033908060018154018082558091505060019003905f5260205f20015f9091909190916101000a81548173ffffffffffffffffffffffffffffffffffffffff021916908373ffffffffffffffffffffffffffffffffffffffff16021790555060065f3373ffffffffffffffffffffffffffffffffffffffff1673ffffffffffffffffffffffffffffffffffffffff1681526020019081526020015f2083908060018154018082558091505060019003905f5260205f20015f909190919091505581816008015f8282546112ac9190612a23565b92505081905550806009015f8154809291906112c790612a56565b91905055503373ffffffffffffffffffffffffffffffffffffffff16837f1a991412ae13f4aaa939c0143e3d6694c47a1400f5259726b86d8175d1126e9684604051611313919061231a565b60405180910390a3505050565b606060065f8373ffffffffffffffffffffffffffffffffffffffff1673ffffffffffffffffffffffffffffffffffffffff1681526020019081526020015f208054806020026020016040519081016040528092919081815260200182805480156113a757602002820191905f5260205f20905b815481526020019060010190808311611393575b50505050509050919050565b6113bb611fda565b60045f8481526020019081526020015f205f8373ffffffffffffffffffffffffffffffffffffffff1673ffffffffffffffffffffffffffffffffffffffff1681526020019081526020015f206040518060c00160405290815f82015f9054906101000a900473ffffffffffffffffffffffffffffffffffffffff1673ffffffffffffffffffffffffffffffffffffffff1673ffffffffffffffffffffffffffffffffffffffff1681526020016001820154815260200160028201548152602001600382015f9054906101000a900460ff161515151581526020016003820160019054906101000a900460ff161515151581526020016003820160029054906101000a900460ff161515151581525050905092915050565b7f000000000000000000000000000000000000000000000000000000000000000081565b6008602052805f5260405f205f915090505481565b6003602052805f5260405f205f91509050805f01549080600101805461153090612c0a565b80601f016020809104026020016040519081016040528092919081815260200182805461155c90612c0a565b80156115a75780601f1061157e576101008083540402835291602001916115a7565b820191905f5260205f20905b81548152906001019060200180831161158a57829003601f168201915b505050505090806002015490806003015490806004015490806005015490806006015490806007015f9054906101000a900460ff16908060070160019054906101000a900460ff1690806008015490806009015490508b565b606060055f8381526020019081526020015f2080548060200260200160405190810160405280929190818152602001828054801561169057602002820191905f5260205f20905b815f9054906101000a900473ffffffffffffffffffffffffffffffffffffffff1673ffffffffffffffffffffffffffffffffffffffff1681526020019060010190808311611647575b50505050509050919050565b60015f9054906101000a900473ffffffffffffffffffffffffffffffffffffffff1673ffffffffffffffffffffffffffffffffffffffff163373ffffffffffffffffffffffffffffffffffffffff1614611722576040517f30cd747100000000000000000000000000000000000000000000000000000000815260040160405180910390fd5b805f806101000a81548173ffffffffffffffffffffffffffffffffffffffff021916908373ffffffffffffffffffffffffffffffffffffffff16021790555050565b5f8054906101000a900473ffffffffffffffffffffffffffffffffffffffff1681565b5f60035f8381526020019081526020015f2090505f60045f8481526020019081526020015f205f3373ffffffffffffffffffffffffffffffffffffffff1673ffffffffffffffffffffffffffffffffffffffff1681526020019081526020015f2090508160070160019054906101000a900460ff16611832576040517f18bf314900000000000000000000000000000000000000000000000000000000815260040160405180910390fd5b5f81600101540361186f576040517fe438f8ce00000000000000000000000000000000000000000000000000000000815260040160405180910390fd5b8060030160029054906101000a900460ff16156118b8576040517f646cf55800000000000000000000000000000000000000000000000000000000815260040160405180910390fd5b8060030160019054906101000a900460ff16611900576040517f1f70d76600000000000000000000000000000000000000000000000000000000815260040160405180910390fd5b60018160030160026101000a81548160ff0219169083151502179055505f8060075f8681526020019081526020015f205411801561194e57505f60085f8681526020019081526020015f2054115b156119935760075f8581526020019081526020015f205460085f8681526020019081526020015f205483600101546119869190613058565b61199091906130c6565b90505b5f8183600101546119a49190612a23565b90507f000000000000000000000000000000000000000000000000000000000000000073ffffffffffffffffffffffffffffffffffffffff1663a9059cbb33836040518363ffffffff1660e01b8152600401611a019291906130f6565b6020604051808303815f875af1158015611a1d573d5f803e3d5ffd5b505050506040513d601f19601f82011682018060405250810190611a419190612fc5565b611a80576040517f08c379a0000000000000000000000000000000000000000000000000000000008152600401611a7790613167565b60405180910390fd5b3373ffffffffffffffffffffffffffffffffffffffff16857f24f674754703db9424a67666c326f9c26bd165c6026777f3d07c30ec01e5bc9985600101548585604051611acf93929190613185565b60405180910390a35050505050565b60015f9054906101000a900473ffffffffffffffffffffffffffffffffffffffff1681565b60015f9054906101000a900473ffffffffffffffffffffffffffffffffffffffff1673ffffffffffffffffffffffffffffffffffffffff163373ffffffffffffffffffffffffffffffffffffffff1614611b89576040517f30cd747100000000000000000000000000000000000000000000000000000000815260040160405180910390fd5b5f60035f8381526020019081526020015f206007015f6101000a81548160ff02191690831515021790555050565b6005602052815f5260405f208181548110611bd0575f80fd5b905f5260205f20015f915091509054906101000a900473ffffffffffffffffffffffffffffffffffffffff1681565b6006602052815f5260405f208181548110611c18575f80fd5b905f5260205f20015f91509150505481565b5f8060035f8581526020019081526020015f2090505f60045f8681526020019081526020015f205f8573ffffffffffffffffffffffffffffffffffffffff1673ffffffffffffffffffffffffffffffffffffffff1681526020019081526020015f2090508160070160019054906101000a900460ff161580611cbb57508060030160019054906101000a900460ff16155b80611cd457508060030160029054906101000a900460ff165b15611ce3575f92505050611d6f565b5f8060075f8881526020019081526020015f2054118015611d1457505f60085f8881526020019081526020015f2054115b15611d595760075f8781526020019081526020015f205460085f8881526020019081526020015f20548360010154611d4c9190613058565b611d5691906130c6565b90505b808260010154611d699190612a23565b93505050505b92915050565b611d7d612026565b60035f8381526020019081526020015f20604051806101600160405290815f8201548152602001600182018054611db390612c0a565b80601f0160208091040260200160405190810160405280929190818152602001828054611ddf90612c0a565b8015611e2a5780601f10611e0157610100808354040283529160200191611e2a565b820191905f5260205f20905b815481529060010190602001808311611e0d57829003601f168201915b505050505081526020016002820154815260200160038201548152602001600482015481526020016005820154815260200160068201548152602001600782015f9054906101000a900460ff161515151581526020016007820160019054906101000a900460ff16151515158152602001600882015481526020016009820154815250509050919050565b5f805f60075f8581526020019081526020015f205460085f8681526020019081526020015f205460035f8781526020019081526020015f2060070160019054906101000a900460ff169250925092509193909250565b60025481565b60015f9054906101000a900473ffffffffffffffffffffffffffffffffffffffff1673ffffffffffffffffffffffffffffffffffffffff163373ffffffffffffffffffffffffffffffffffffffff1614611f97576040517f30cd747100000000000000000000000000000000000000000000000000000000815260040160405180910390fd5b8060015f6101000a81548173ffffffffffffffffffffffffffffffffffffffff021916908373ffffffffffffffffffffffffffffffffffffffff16021790555050565b6040518060c001604052805f73ffffffffffffffffffffffffffffffffffffffff1681526020015f81526020015f81526020015f151581526020015f151581526020015f151581525090565b6040518061016001604052805f8152602001606081526020015f81526020015f81526020015f81526020015f81526020015f81526020015f151581526020015f151581526020015f81526020015f81525090565b5f80fd5b5f80fd5b5f819050919050565b61209481612082565b811461209e575f80fd5b50565b5f813590506120af8161208b565b92915050565b5f73ffffffffffffffffffffffffffffffffffffffff82169050919050565b5f6120de826120b5565b9050919050565b6120ee816120d4565b81146120f8575f80fd5b50565b5f81359050612109816120e5565b92915050565b5f80604083850312156121255761212461207a565b5b5f612132858286016120a1565b9250506020612143858286016120fb565b9150509250929050565b612156816120d4565b82525050565b61216581612082565b82525050565b5f8115159050919050565b61217f8161216b565b82525050565b5f60c0820190506121985f83018961214d565b6121a5602083018861215c565b6121b2604083018761215c565b6121bf6060830186612176565b6121cc6080830185612176565b6121d960a0830184612176565b979650505050505050565b5f602082840312156121f9576121f861207a565b5b5f612206848285016120a1565b91505092915050565b5f80fd5b5f80fd5b5f80fd5b5f8083601f8401126122305761222f61220f565b5b8235905067ffffffffffffffff81111561224d5761224c612213565b5b60208301915083600182028301111561226957612268612217565b5b9250929050565b5f805f805f805f60c0888a03121561228b5761228a61207a565b5b5f88013567ffffffffffffffff8111156122a8576122a761207e565b5b6122b48a828b0161221b565b975097505060206122c78a828b016120a1565b95505060406122d88a828b016120a1565b94505060606122e98a828b016120a1565b93505060806122fa8a828b016120a1565b92505060a061230b8a828b016120a1565b91505092959891949750929550565b5f60208201905061232d5f83018461215c565b92915050565b5f805f6060848603121561234a5761234961207a565b5b5f612357868287016120a1565b9350506020612368868287016120fb565b9250506040612379868287016120a1565b9150509250925092565b5f80604083850312156123995761239861207a565b5b5f6123a6858286016120a1565b92505060206123b7858286016120a1565b9150509250929050565b5f602082840312156123d6576123d561207a565b5b5f6123e3848285016120fb565b91505092915050565b5f81519050919050565b5f82825260208201905092915050565b5f819050602082019050919050565b61241e81612082565b82525050565b5f61242f8383612415565b60208301905092915050565b5f602082019050919050565b5f612451826123ec565b61245b81856123f6565b935061246683612406565b805f5b8381101561249657815161247d8882612424565b97506124888361243b565b925050600181019050612469565b5085935050505092915050565b5f6020820190508181035f8301526124bb8184612447565b905092915050565b6124cc816120d4565b82525050565b6124db8161216b565b82525050565b60c082015f8201516124f55f8501826124c3565b5060208201516125086020850182612415565b50604082015161251b6040850182612415565b50606082015161252e60608501826124d2565b50608082015161254160808501826124d2565b5060a082015161255460a08501826124d2565b50505050565b5f60c08201905061256d5f8301846124e1565b92915050565b5f819050919050565b5f61259661259161258c846120b5565b612573565b6120b5565b9050919050565b5f6125a78261257c565b9050919050565b5f6125b88261259d565b9050919050565b6125c8816125ae565b82525050565b5f6020820190506125e15f8301846125bf565b92915050565b5f81519050919050565b5f82825260208201905092915050565b5f5b8381101561261e578082015181840152602081019050612603565b5f8484015250505050565b5f601f19601f8301169050919050565b5f612643826125e7565b61264d81856125f1565b935061265d818560208601612601565b61266681612629565b840191505092915050565b5f610160820190506126855f83018e61215c565b8181036020830152612697818d612639565b90506126a6604083018c61215c565b6126b3606083018b61215c565b6126c0608083018a61215c565b6126cd60a083018961215c565b6126da60c083018861215c565b6126e760e0830187612176565b6126f5610100830186612176565b61270361012083018561215c565b61271161014083018461215c565b9c9b505050505050505050505050565b5f81519050919050565b5f82825260208201905092915050565b5f819050602082019050919050565b5f61275583836124c3565b60208301905092915050565b5f602082019050919050565b5f61277782612721565b612781818561272b565b935061278c8361273b565b805f5b838110156127bc5781516127a3888261274a565b97506127ae83612761565b92505060018101905061278f565b5085935050505092915050565b5f6020820190508181035f8301526127e1818461276d565b905092915050565b5f6020820190506127fc5f83018461214d565b92915050565b5f80604083850312156128185761281761207a565b5b5f612825858286016120fb565b9250506020612836858286016120a1565b9150509250929050565b5f82825260208201905092915050565b5f61285a826125e7565b6128648185612840565b9350612874818560208601612601565b61287d81612629565b840191505092915050565b5f61016083015f83015161289e5f860182612415565b50602083015184820360208601526128b68282612850565b91505060408301516128cb6040860182612415565b5060608301516128de6060860182612415565b5060808301516128f16080860182612415565b5060a083015161290460a0860182612415565b5060c083015161291760c0860182612415565b5060e083015161292a60e08601826124d2565b5061010083015161293f6101008601826124d2565b50610120830151612954610120860182612415565b50610140830151612969610140860182612415565b508091505092915050565b5f6020820190508181035f83015261298c8184612888565b905092915050565b5f6060820190506129a75f83018661215c565b6129b4602083018561215c565b6129c16040830184612176565b949350505050565b7f4e487b71000000000000000000000000000000000000000000000000000000005f52603260045260245ffd5b7f4e487b71000000000000000000000000000000000000000000000000000000005f52601160045260245ffd5b5f612a2d82612082565b9150612a3883612082565b9250828201905080821115612a5057612a4f6129f6565b5b92915050565b5f612a6082612082565b91507fffffffffffffffffffffffffffffffffffffffffffffffffffffffffffffffff8203612a9257612a916129f6565b5b600182019050919050565b5f608082019050612ab05f83018761215c565b612abd602083018661215c565b612aca604083018561215c565b612ad7606083018461215c565b95945050505050565b7f496e76616c69642074696d6573000000000000000000000000000000000000005f82015250565b5f612b14600d836125f1565b9150612b1f82612ae0565b602082019050919050565b5f6020820190508181035f830152612b4181612b08565b9050919050565b7f496e76616c6964207374616b65730000000000000000000000000000000000005f82015250565b5f612b7c600e836125f1565b9150612b8782612b48565b602082019050919050565b5f6020820190508181035f830152612ba981612b70565b9050919050565b7f4e487b71000000000000000000000000000000000000000000000000000000005f52604160045260245ffd5b7f4e487b71000000000000000000000000000000000000000000000000000000005f52602260045260245ffd5b5f6002820490506001821680612c2157607f821691505b602082108103612c3457612c33612bdd565b5b50919050565b5f819050815f5260205f209050919050565b5f6020601f8301049050919050565b5f82821b905092915050565b5f60088302612c967fffffffffffffffffffffffffffffffffffffffffffffffffffffffffffffffff82612c5b565b612ca08683612c5b565b95508019841693508086168417925050509392505050565b5f612cd2612ccd612cc884612082565b612573565b612082565b9050919050565b5f819050919050565b612ceb83612cb8565b612cff612cf782612cd9565b848454612c67565b825550505050565b5f90565b612d13612d07565b612d1e818484612ce2565b505050565b5b81811015612d4157612d365f82612d0b565b600181019050612d24565b5050565b601f821115612d8657612d5781612c3a565b612d6084612c4c565b81016020851015612d6f578190505b612d83612d7b85612c4c565b830182612d23565b50505b505050565b5f82821c905092915050565b5f612da65f1984600802612d8b565b1980831691505092915050565b5f612dbe8383612d97565b9150826002028217905092915050565b612dd7826125e7565b67ffffffffffffffff811115612df057612def612bb0565b5b612dfa8254612c0a565b612e05828285612d45565b5f60209050601f831160018114612e36575f8415612e24578287015190505b612e2e8582612db3565b865550612e95565b601f198416612e4486612c3a565b5f5b82811015612e6b57848901518255600182019150602085019450602081019050612e46565b86831015612e885784890151612e84601f891682612d97565b8355505b6001600288020188555050505b505050505050565b828183375f83830152505050565b5f612eb683856125f1565b9350612ec3838584612e9d565b612ecc83612629565b840190509392505050565b5f60c0820190508181035f830152612ef081898b612eab565b9050612eff602083018861215c565b612f0c604083018761215c565b612f19606083018661215c565b612f26608083018561215c565b612f3360a083018461215c565b98975050505050505050565b5f604082019050612f525f83018561215c565b612f5f6020830184612176565b9392505050565b5f606082019050612f795f83018661214d565b612f86602083018561214d565b612f93604083018461215c565b949350505050565b612fa48161216b565b8114612fae575f80fd5b50565b5f81519050612fbf81612f9b565b92915050565b5f60208284031215612fda57612fd961207a565b5b5f612fe784828501612fb1565b91505092915050565b7f5472616e73666572206661696c656400000000000000000000000000000000005f82015250565b5f613024600f836125f1565b915061302f82612ff0565b602082019050919050565b5f6020820190508181035f83015261305181613018565b9050919050565b5f61306282612082565b915061306d83612082565b925082820261307b81612082565b91508282048414831517613092576130916129f6565b5b5092915050565b7f4e487b71000000000000000000000000000000000000000000000000000000005f52601260045260245ffd5b5f6130d082612082565b91506130db83612082565b9250826130eb576130ea613099565b5b828204905092915050565b5f6040820190506131095f83018561214d565b613116602083018461215c565b9392505050565b7f5061796f7574206661696c6564000000000000000000000000000000000000005f82015250565b5f613151600d836125f1565b915061315c8261311d565b602082019050919050565b5f6020820190508181035f83015261317e81613145565b9050919050565b5f6060820190506131985f83018661215c565b6131a5602083018561215c565b6131b2604083018461215c565b94935050505056fea2646970667358221220bef259e205263a51097c9a17d758e24c083434142ef93bd098185d17375149a464736f6c63430008140033","linkReferences":{}},"methodIdentifiers":{"calculatePayout(uint256,address)":"b726be7f","claimPayout(uint256)":"8a69614e","createGoal(string,uint256,uint256,uint256,uint256,uint256)":"0d12a5f0","deactivateGoal(uint256)":"937895c4","getGoal(uint256)":"df6ed6cb","getGoalParticipants(uint256)":"70880638","getGoalSettlement(uint256)":"e51beb2f","getParticipant(uint256,address)":"35f3ad7a","getUserGoals(address)":"35742c63","goalCount()":"e75f6ca7","goalParticipants(uint256,uint256)":"a7b75eab","goals(uint256)":"61449ca2","joinGoal(uint256,uint256)":"3147b1d1","loserPool(uint256)":"451c25ef","oracle()":"7dc0d1d0","owner()":"8da5cb5b","participants(uint256,address)":"02e060c6","setOracle(address)":"7adbf973","settleGoal(uint256)":"06284197","totalWinnerStakes(uint256)":"2596ee91","transferOwnership(address)":"f2fde38b","usdc()":"3e413bee","userGoals(address,uint256)":"b6b3eedf","verifyParticipant(uint256,address,uint256)":"160c3fca"},"id":1}