{"abi":[{"type":"constructor","inputs":[{"name":"_usdc","type":"address","internalType":"address"},{"name":"_oracle","type":"address","internalType":"address"}],"stateMutability":"nonpayable"},{"type":"function","name":"challengeCount","inputs":[],"outputs":[{"name":"","type":"uint256","internalType":"uint256"}],"stateMutability":"view"},{"type":"function","name":"challenges","inputs":[{"name":"","type":"uint256","internalType":"uint256"}],"outputs":[{"name":"id","type":"uint256","internalType":"uint256"},{"name":"user","type":"address","internalType":"address"},{"name":"targetMiles","type":"uint256","internalType":"uint256"},{"name":"stakeAmount","type":"uint256","internalType":"uint256"},{"name":"deadline","type":"uint256","internalType":"uint256"},{"name":"actualMiles","type":"uint256","internalType":"uint256"},{"name":"settled","type":"bool","internalType":"bool"},{"name":"success","type":"bool","internalType":"bool"}],"stateMutability":"view"},{"type":"function","name":"createChallenge","inputs":[{"name":"targetMiles","type":"uint256","internalType":"uint256"},{"name":"stakeAmount","type":"uint256","internalType":"uint256"},{"name":"duration","type":"uint256","internalType":"uint256"}],"outputs":[{"name":"challengeId","type":"uint256","internalType":"uint256"}],"stateMutability":"nonpayable"},{"type":"function","name":"getChallenge","inputs":[{"name":"challengeId","type":"uint256","internalType":"uint256"}],"outputs":[{"name":"","type":"tuple","internalType":"struct GoalStake.Challenge","components":[{"name":"id","type":"uint256","internalType":"uint256"},{"name":"user","type":"address","internalType":"address"},{"name":"targetMiles","type":"uint256","internalType":"uint256"},{"name":"stakeAmount","type":"uint256","internalType":"uint256"},{"name":"deadline","type":"uint256","internalType":"uint256"},{"name":"actualMiles","type":"uint256","internalType":"uint256"},{"name":"settled","type":"bool","internalType":"bool"},{"name":"success","type":"bool","internalType":"bool"}]}],"stateMutability":"view"},{"type":"function","name":"getLoserPool","inputs":[],"outputs":[{"name":"","type":"uint256","internalType":"uint256"}],"stateMutability":"view"},{"type":"function","name":"getUserChallenges","inputs":[{"name":"user","type":"address","internalType":"address"}],"outputs":[{"name":"","type":"uint256[]","internalType":"uint256[]"}],"stateMutability":"view"},{"type":"function","name":"loserPool","inputs":[],"outputs":[{"name":"","type":"uint256","internalType":"uint256"}],"stateMutability":"view"},{"type":"function","name":"maxStake","inputs":[],"outputs":[{"name":"","type":"uint256","internalType":"uint256"}],"stateMutability":"view"},{"type":"function","name":"minStake","inputs":[],"outputs":[{"name":"","type":"uint256","internalType":"uint256"}],"stateMutability":"view"},{"type":"function","name":"oracle","inputs":[],"outputs":[{"name":"","type":"address","internalType":"address"}],"stateMutability":"view"},{"type":"function","name":"owner","inputs":[],"outputs":[{"name":"","type":"address","internalType":"address"}],"stateMutability":"view"},{"type":"function","name":"setOracle","inputs":[{"name":"_oracle","type":"address","internalType":"address"}],"outputs":[],"stateMutability":"nonpayable"},{"type":"function","name":"setStakeLimits","inputs":[{"name":"_min","type":"uint256","internalType":"uint256"},{"name":"_max","type":"uint256","internalType":"uint256"}],"outputs":[],"stateMutability":"nonpayable"},{"type":"function","name":"usdc","inputs":[],"outputs":[{"name":"","type":"address","internalType":"contract IERC20"}],"stateMutability":"view"},{"type":"function","name":"userChallenges","inputs":[{"name":"","type":"address","internalType":"address"},{"name":"","type":"uint256","internalType":"uint256"}],"outputs":[{"name":"","type":"uint256","internalType":"uint256"}],"stateMutability":"view"},{"type":"function","name":"verifyChallenge","inputs":[{"name":"challengeId","type":"uint256","internalType":"uint256"},{"name":"actualMiles","type":"uint256","internalType":"uint256"}],"outputs":[],"stateMutability":"nonpayable"},{"type":"event","name":"ChallengSettled","inputs":[{"name":"challengeId","type":"uint256","indexed":true,"internalType":"uint256"},{"name":"user","type":"address","indexed":true,"internalType":"address"},{"name":"payout","type":"uint256","indexed":false,"internalType":"uint256"},{"name":"success","type":"bool","indexed":false,"internalType":"bool"}],"anonymous":false},{"type":"event","name":"ChallengeCreated","inputs":[{"name":"challengeId","type":"uint256","indexed":true,"internalType":"uint256"},{"name":"user","type":"address","indexed":true,"internalType":"address"},{"name":"targetMiles","type":"uint256","indexed":false,"internalType":"uint256"},{"name":"stakeAmount","type":"uint256","indexed":false,"internalType":"uint256"},{"name":"deadline","type":"uint256","indexed":false,"internalType":"uint256"}],"anonymous":false},{"type":"event","name":"ChallengeVerified","inputs":[{"name":"challengeId","type":"uint256","indexed":true,"internalType":"uint256"},{"name":"actualMiles","type":"uint256","indexed":false,"internalType":"uint256"},{"name":"success","type":"bool","indexed":false,"internalType":"bool"}],"anonymous":false}],"bytecode":{"object":"0x60a060405262989680600455633b9aca0060055534801561001e575f5ffd5b50604051611dbb380380611dbb83398181016040528101906100409190610158565b8173ffffffffffffffffffffffffffffffffffffffff1660808173ffffffffffffffffffffffffffffffffffffffff1681525050805f5f6101000a81548173ffffffffffffffffffffffffffffffffffffffff021916908373ffffffffffffffffffffffffffffffffffffffff1602179055503360015f6101000a81548173ffffffffffffffffffffffffffffffffffffffff021916908373ffffffffffffffffffffffffffffffffffffffff1602179055505050610196565b5f5ffd5b5f73ffffffffffffffffffffffffffffffffffffffff82169050919050565b5f610127826100fe565b9050919050565b6101378161011d565b8114610141575f5ffd5b50565b5f815190506101528161012e565b92915050565b5f5f6040838503121561016e5761016d6100fa565b5b5f61017b85828601610144565b925050602061018c85828601610144565b9150509250929050565b608051611bff6101bc5f395f81816104c5015281816106420152610e3f0152611bff5ff3fe608060405234801561000f575f5ffd5b50600436106100fe575f3560e01c80637dc0d1d011610095578063a2f0572511610064578063a2f05725146102b3578063a5bb55c7146102d1578063a5ff0a13146102ef578063ea1b28e01461031f576100fe565b80637dc0d1d0146102245780638c9bd1b5146102425780638da5cb5b1461025e5780638f1d37761461027c576100fe565b80633e413bee116100d15780633e413bee1461019e57806351d2f246146101bc578063602a29e1146101ec5780637adbf97314610208576100fe565b806311da8e54146101025780631bdd4b74146101325780632e7d299114610162578063375b3c0a14610180575b5f5ffd5b61011c6004803603810190610117919061109f565b61033d565b604051610129919061118a565b60405180910390f35b61014c600480360381019061014791906111d4565b6103d0565b60405161015991906112c8565b60405180910390f35b61016a6104b7565b60405161017791906112f1565b60405180910390f35b6101886104bd565b60405161019591906112f1565b60405180910390f35b6101a66104c3565b6040516101b39190611365565b60405180910390f35b6101d660048036038101906101d1919061137e565b6104e7565b6040516101e391906112f1565b60405180910390f35b610206600480360381019061020191906113ce565b610922565b005b610222600480360381019061021d919061109f565b610ae1565b005b61022c610bb2565b604051610239919061141b565b60405180910390f35b61025c600480360381019061025791906113ce565b610bd6565b005b610266610c77565b604051610273919061141b565b60405180910390f35b610296600480360381019061029191906111d4565b610c9c565b6040516102aa989796959493929190611443565b60405180910390f35b6102bb610d18565b6040516102c891906112f1565b60405180910390f35b6102d9610d1e565b6040516102e691906112f1565b60405180910390f35b610309600480360381019061030491906114bf565b610d27565b60405161031691906112f1565b60405180910390f35b610327610d52565b60405161033491906112f1565b60405180910390f35b606060075f8373ffffffffffffffffffffffffffffffffffffffff1673ffffffffffffffffffffffffffffffffffffffff1681526020019081526020015f208054806020026020016040519081016040528092919081815260200182805480156103c457602002820191905f5260205f20905b8154815260200190600101908083116103b0575b50505050509050919050565b6103d8610fea565b60065f8381526020019081526020015f20604051806101000160405290815f8201548152602001600182015f9054906101000a900473ffffffffffffffffffffffffffffffffffffffff1673ffffffffffffffffffffffffffffffffffffffff1673ffffffffffffffffffffffffffffffffffffffff16815260200160028201548152602001600382015481526020016004820154815260200160058201548152602001600682015f9054906101000a900460ff161515151581526020016006820160019054906101000a900460ff1615151515815250509050919050565b60035481565b60045481565b7f000000000000000000000000000000000000000000000000000000000000000081565b5f60045483101561052d576040517f08c379a000000000000000000000000000000000000000000000000000000000815260040161052490611557565b60405180910390fd5b600554831115610572576040517f08c379a0000000000000000000000000000000000000000000000000000000008152600401610569906115bf565b60405180910390fd5b5f84116105b4576040517f08c379a00000000000000000000000000000000000000000000000000000000081526004016105ab90611627565b60405180910390fd5b620151808210156105fa576040517f08c379a00000000000000000000000000000000000000000000000000000000081526004016105f19061168f565b60405180910390fd5b6276a700821115610640576040517f08c379a0000000000000000000000000000000000000000000000000000000008152600401610637906116f7565b60405180910390fd5b7f000000000000000000000000000000000000000000000000000000000000000073ffffffffffffffffffffffffffffffffffffffff166323b872dd3330866040518463ffffffff1660e01b815260040161069d93929190611715565b6020604051808303815f875af11580156106b9573d5f5f3e3d5ffd5b505050506040513d601f19601f820116820180604052508101906106dd9190611774565b61071c576040517f08c379a0000000000000000000000000000000000000000000000000000000008152600401610713906117e9565b60405180910390fd5b60025f81548092919061072e90611834565b9190505590506040518061010001604052808281526020013373ffffffffffffffffffffffffffffffffffffffff168152602001858152602001848152602001834261077a919061187b565b81526020015f81526020015f151581526020015f151581525060065f8381526020019081526020015f205f820151815f01556020820151816001015f6101000a81548173ffffffffffffffffffffffffffffffffffffffff021916908373ffffffffffffffffffffffffffffffffffffffff16021790555060408201518160020155606082015181600301556080820151816004015560a0820151816005015560c0820151816006015f6101000a81548160ff02191690831515021790555060e08201518160060160016101000a81548160ff02191690831515021790555090505060075f3373ffffffffffffffffffffffffffffffffffffffff1673ffffffffffffffffffffffffffffffffffffffff1681526020019081526020015f2081908060018154018082558091505060019003905f5260205f20015f90919091909150553373ffffffffffffffffffffffffffffffffffffffff16817f9fc5e80ae4c8ee42b06c52c36ecc991303397f5bd41b8783f619c17c9393ec3f86868642610904919061187b565b604051610913939291906118ae565b60405180910390a39392505050565b5f5f9054906101000a900473ffffffffffffffffffffffffffffffffffffffff1673ffffffffffffffffffffffffffffffffffffffff163373ffffffffffffffffffffffffffffffffffffffff16146109b0576040517f08c379a00000000000000000000000000000000000000000000000000000000081526004016109a79061192d565b60405180910390fd5b5f60065f8481526020019081526020015f209050806006015f9054906101000a900460ff1615610a15576040517f08c379a0000000000000000000000000000000000000000000000000000000008152600401610a0c90611995565b60405180910390fd5b8060040154421015610a5c576040517f08c379a0000000000000000000000000000000000000000000000000000000008152600401610a53906119fd565b60405180910390fd5b81816005018190555080600201548210158160060160016101000a81548160ff021916908315150217905550827f2c3953f1e77446b8948e8b9240f379d127a3a1a2cc55eaff43c0388a9af89595838360060160019054906101000a900460ff16604051610acb929190611a1b565b60405180910390a2610adc83610d58565b505050565b60015f9054906101000a900473ffffffffffffffffffffffffffffffffffffffff1673ffffffffffffffffffffffffffffffffffffffff163373ffffffffffffffffffffffffffffffffffffffff1614610b70576040517f08c379a0000000000000000000000000000000000000000000000000000000008152600401610b6790611a8c565b60405180910390fd5b805f5f6101000a81548173ffffffffffffffffffffffffffffffffffffffff021916908373ffffffffffffffffffffffffffffffffffffffff16021790555050565b5f5f9054906101000a900473ffffffffffffffffffffffffffffffffffffffff1681565b60015f9054906101000a900473ffffffffffffffffffffffffffffffffffffffff1673ffffffffffffffffffffffffffffffffffffffff163373ffffffffffffffffffffffffffffffffffffffff1614610c65576040517f08c379a0000000000000000000000000000000000000000000000000000000008152600401610c5c90611a8c565b60405180910390fd5b81600481905550806005819055505050565b60015f9054906101000a900473ffffffffffffffffffffffffffffffffffffffff1681565b6006602052805f5260405f205f91509050805f015490806001015f9054906101000a900473ffffffffffffffffffffffffffffffffffffffff1690806002015490806003015490806004015490806005015490806006015f9054906101000a900460ff16908060060160019054906101000a900460ff16905088565b60025481565b5f600354905090565b6007602052815f5260405f208181548110610d40575f80fd5b905f5260205f20015f91509150505481565b60055481565b5f60065f8381526020019081526020015f209050806006015f9054906101000a900460ff1615610dbd576040517f08c379a0000000000000000000000000000000000000000000000000000000008152600401610db490611995565b60405180910390fd5b6001816006015f6101000a81548160ff0219169083151502179055505f8160060160019054906101000a900460ff1615610f40575f600a600354610e019190611ad7565b9050600354811115610e135760035490505b8060035f828254610e249190611b07565b92505081905550808360030154610e3b919061187b565b91507f000000000000000000000000000000000000000000000000000000000000000073ffffffffffffffffffffffffffffffffffffffff1663a9059cbb846001015f9054906101000a900473ffffffffffffffffffffffffffffffffffffffff16846040518363ffffffff1660e01b8152600401610ebb929190611b3a565b6020604051808303815f875af1158015610ed7573d5f5f3e3d5ffd5b505050506040513d601f19601f82011682018060405250810190610efb9190611774565b610f3a576040517f08c379a0000000000000000000000000000000000000000000000000000000008152600401610f3190611bab565b60405180910390fd5b50610f60565b816003015460035f828254610f55919061187b565b925050819055505f90505b816001015f9054906101000a900473ffffffffffffffffffffffffffffffffffffffff1673ffffffffffffffffffffffffffffffffffffffff16837ff96ae404dc88de57ef3bdc2f04f2eb11c0507390c93d499e63bdaef747d23497838560060160019054906101000a900460ff16604051610fdd929190611a1b565b60405180910390a3505050565b6040518061010001604052805f81526020015f73ffffffffffffffffffffffffffffffffffffffff1681526020015f81526020015f81526020015f81526020015f81526020015f151581526020015f151581525090565b5f5ffd5b5f73ffffffffffffffffffffffffffffffffffffffff82169050919050565b5f61106e82611045565b9050919050565b61107e81611064565b8114611088575f5ffd5b50565b5f8135905061109981611075565b92915050565b5f602082840312156110b4576110b3611041565b5b5f6110c18482850161108b565b91505092915050565b5f81519050919050565b5f82825260208201905092915050565b5f819050602082019050919050565b5f819050919050565b611105816110f3565b82525050565b5f61111683836110fc565b60208301905092915050565b5f602082019050919050565b5f611138826110ca565b61114281856110d4565b935061114d836110e4565b805f5b8381101561117d578151611164888261110b565b975061116f83611122565b925050600181019050611150565b5085935050505092915050565b5f6020820190508181035f8301526111a2818461112e565b905092915050565b6111b3816110f3565b81146111bd575f5ffd5b50565b5f813590506111ce816111aa565b92915050565b5f602082840312156111e9576111e8611041565b5b5f6111f6848285016111c0565b91505092915050565b61120881611064565b82525050565b5f8115159050919050565b6112228161120e565b82525050565b61010082015f82015161123d5f8501826110fc565b50602082015161125060208501826111ff565b50604082015161126360408501826110fc565b50606082015161127660608501826110fc565b50608082015161128960808501826110fc565b5060a082015161129c60a08501826110fc565b5060c08201516112af60c0850182611219565b5060e08201516112c260e0850182611219565b50505050565b5f610100820190506112dc5f830184611228565b92915050565b6112eb816110f3565b82525050565b5f6020820190506113045f8301846112e2565b92915050565b5f819050919050565b5f61132d61132861132384611045565b61130a565b611045565b9050919050565b5f61133e82611313565b9050919050565b5f61134f82611334565b9050919050565b61135f81611345565b82525050565b5f6020820190506113785f830184611356565b92915050565b5f5f5f6060848603121561139557611394611041565b5b5f6113a2868287016111c0565b93505060206113b3868287016111c0565b92505060406113c4868287016111c0565b9150509250925092565b5f5f604083850312156113e4576113e3611041565b5b5f6113f1858286016111c0565b9250506020611402858286016111c0565b9150509250929050565b61141581611064565b82525050565b5f60208201905061142e5f83018461140c565b92915050565b61143d8161120e565b82525050565b5f610100820190506114575f83018b6112e2565b611464602083018a61140c565b61147160408301896112e2565b61147e60608301886112e2565b61148b60808301876112e2565b61149860a08301866112e2565b6114a560c0830185611434565b6114b260e0830184611434565b9998505050505050505050565b5f5f604083850312156114d5576114d4611041565b5b5f6114e28582860161108b565b92505060206114f3858286016111c0565b9150509250929050565b5f82825260208201905092915050565b7f5374616b6520746f6f206c6f77000000000000000000000000000000000000005f82015250565b5f611541600d836114fd565b915061154c8261150d565b602082019050919050565b5f6020820190508181035f83015261156e81611535565b9050919050565b7f5374616b6520746f6f20686967680000000000000000000000000000000000005f82015250565b5f6115a9600e836114fd565b91506115b482611575565b602082019050919050565b5f6020820190508181035f8301526115d68161159d565b9050919050565b7f546172676574206d757374206265203e203000000000000000000000000000005f82015250565b5f6116116012836114fd565b915061161c826115dd565b602082019050919050565b5f6020820190508181035f83015261163e81611605565b9050919050565b7f4475726174696f6e20746f6f2073686f727400000000000000000000000000005f82015250565b5f6116796012836114fd565b915061168482611645565b602082019050919050565b5f6020820190508181035f8301526116a68161166d565b9050919050565b7f4475726174696f6e20746f6f206c6f6e670000000000000000000000000000005f82015250565b5f6116e16011836114fd565b91506116ec826116ad565b602082019050919050565b5f6020820190508181035f83015261170e816116d5565b9050919050565b5f6060820190506117285f83018661140c565b611735602083018561140c565b61174260408301846112e2565b949350505050565b6117538161120e565b811461175d575f5ffd5b50565b5f8151905061176e8161174a565b92915050565b5f6020828403121561178957611788611041565b5b5f61179684828501611760565b91505092915050565b7f5472616e73666572206661696c656400000000000000000000000000000000005f82015250565b5f6117d3600f836114fd565b91506117de8261179f565b602082019050919050565b5f6020820190508181035f830152611800816117c7565b9050919050565b7f4e487b71000000000000000000000000000000000000000000000000000000005f52601160045260245ffd5b5f61183e826110f3565b91507fffffffffffffffffffffffffffffffffffffffffffffffffffffffffffffffff82036118705761186f611807565b5b600182019050919050565b5f611885826110f3565b9150611890836110f3565b92508282019050808211156118a8576118a7611807565b5b92915050565b5f6060820190506118c15f8301866112e2565b6118ce60208301856112e2565b6118db60408301846112e2565b949350505050565b7f4e6f74206f7261636c65000000000000000000000000000000000000000000005f82015250565b5f611917600a836114fd565b9150611922826118e3565b602082019050919050565b5f6020820190508181035f8301526119448161190b565b9050919050565b7f416c726561647920736574746c656400000000000000000000000000000000005f82015250565b5f61197f600f836114fd565b915061198a8261194b565b602082019050919050565b5f6020820190508181035f8301526119ac81611973565b9050919050565b7f4e6f742079657420646561646c696e65000000000000000000000000000000005f82015250565b5f6119e76010836114fd565b91506119f2826119b3565b602082019050919050565b5f6020820190508181035f830152611a14816119db565b9050919050565b5f604082019050611a2e5f8301856112e2565b611a3b6020830184611434565b9392505050565b7f4e6f74206f776e657200000000000000000000000000000000000000000000005f82015250565b5f611a766009836114fd565b9150611a8182611a42565b602082019050919050565b5f6020820190508181035f830152611aa381611a6a565b9050919050565b7f4e487b71000000000000000000000000000000000000000000000000000000005f52601260045260245ffd5b5f611ae1826110f3565b9150611aec836110f3565b925082611afc57611afb611aaa565b5b828204905092915050565b5f611b11826110f3565b9150611b1c836110f3565b9250828203905081811115611b3457611b33611807565b5b92915050565b5f604082019050611b4d5f83018561140c565b611b5a60208301846112e2565b9392505050565b7f5061796f7574206661696c6564000000000000000000000000000000000000005f82015250565b5f611b95600d836114fd565b9150611ba082611b61565b602082019050919050565b5f6020820190508181035f830152611bc281611b89565b905091905056fea26469706673582212209298667ea0264ced6cf45df1c5ac80540311d16b6c4b0575186c02412de9ef1764736f6c63430008210033","linkReferences":{}},"methodIdentifiers":{"challengeCount()":"a2f05725","challenges(uint256)":"8f1d3776","createChallenge(uint256,uint256,uint256)":"51d2f246","getChallenge(uint256)":"1bdd4b74","getLoserPool()":"a5bb55c7","getUserChallenges(address)":"11da8e54","loserPool()":"2e7d2991","maxStake()":"ea1b28e0","minStake()":"375b3c0a","oracle()":"7dc0d1d0","owner()":"8da5cb5b","setOracle(address)":"7adbf973","setStakeLimits(uint256,uint256)":"8c9bd1b5","usdc()":"3e413bee","userChallenges(address,uint256)":"a5ff0a13","verifyChallenge(uint256,uint256)":"602a29e1"},"id":23}