{"abi":[{"type":"constructor","inputs":[{"name":"_usdc","type":"address","internalType":"address"},{"name":"_oracle","type":"address","internalType":"address"}],"stateMutability":"nonpayable"},{"type":"function","name":"challengeCount","inputs":[],"outputs":[{"name":"","type":"uint256","internalType":"uint256"}],"stateMutability":"view"},{"type":"function","name":"challenges","inputs":[{"name":"","type":"uint256","internalType":"uint256"}],"outputs":[{"name":"id","type":"uint256","internalType":"uint256"},{"name":"user","type":"address","internalType":"address"},{"name":"targetMiles","type":"uint256","internalType":"uint256"},{"name":"stakeAmount","type":"uint256","internalType":"uint256"},{"name":"deadline","type":"uint256","internalType":"uint256"},{"name":"actualMiles","type":"uint256","internalType":"uint256"},{"name":"settled","type":"bool","internalType":"bool"},{"name":"success","type":"bool","internalType":"bool"}],"stateMutability":"view"},{"type":"function","name":"createChallenge","inputs":[{"name":"targetMiles","type":"uint256","internalType":"uint256"},{"name":"stakeAmount","type":"uint256","internalType":"uint256"},{"name":"duration","type":"uint256","internalType":"uint256"}],"outputs":[{"name":"challengeId","type":"uint256","internalType":"uint256"}],"stateMutability":"nonpayable"},{"type":"function","name":"getChallenge","inputs":[{"name":"challengeId","type":"uint256","internalType":"uint256"}],"outputs":[{"name":"","type":"tuple","internalType":"struct GoalStake.Challenge","components":[{"name":"id","type":"uint256","internalType":"uint256"},{"name":"user","type":"address","internalType":"address"},{"name":"targetMiles","type":"uint256","internalType":"uint256"},{"name":"stakeAmount","type":"uint256","internalType":"uint256"},{"name":"deadline","type":"uint256","internalType":"uint256"},{"name":"actualMiles","type":"uint256","internalType":"uint256"},{"name":"settled","type":"bool","internalType":"bool"},{"name":"success","type":"bool","internalType":"bool"}]}],"stateMutability":"view"},{"type":"function","name":"getLoserPool","inputs":[],"outputs":[{"name":"","type":"uint256","internalType":"uint256"}],"stateMutability":"view"},{"type":"function","name":"getUserChallenges","inputs":[{"name":"user","type":"address","internalType":"address"}],"outputs":[{"name":"","type":"uint256[]","internalType":"uint256[]"}],"stateMutability":"view"},{"type":"function","name":"loserPool","inputs":[],"outputs":[{"name":"","type":"uint256","internalType":"uint256"}],"stateMutability":"view"},{"type":"function","name":"maxStake","inputs":[],"outputs":[{"name":"","type":"uint256","internalType":"uint256"}],"stateMutability":"view"},{"type":"function","name":"minStake","inputs":[],"outputs":[{"name":"","type":"uint256","internalType":"uint256"}],"stateMutability":"view"},{"type":"function","name":"oracle","inputs":[],"outputs":[{"name":"","type":"address","internalType":"address"}],"stateMutability":"view"},{"type":"function","name":"owner","inputs":[],"outputs":[{"name":"","type":"address","internalType":"address"}],"stateMutability":"view"},{"type":"function","name":"setOracle","inputs":[{"name":"_oracle","type":"address","internalType":"address"}],"outputs":[],"stateMutability":"nonpayable"},{"type":"function","name":"setStakeLimits","inputs":[{"name":"_min","type":"uint256","internalType":"uint256"},{"name":"_max","type":"uint256","internalType":"uint256"}],"outputs":[],"stateMutability":"nonpayable"},{"type":"function","name":"usdc","inputs":[],"outputs":[{"name":"","type":"address","internalType":"contract IERC20"}],"stateMutability":"view"},{"type":"function","name":"userChallenges","inputs":[{"name":"","type":"address","internalType":"address"},{"name":"","type":"uint256","internalType":"uint256"}],"outputs":[{"name":"","type":"uint256","internalType":"uint256"}],"stateMutability":"view"},{"type":"function","name":"verifyChallenge","inputs":[{"name":"challengeId","type":"uint256","internalType":"uint256"},{"name":"actualMiles","type":"uint256","internalType":"uint256"}],"outputs":[],"stateMutability":"nonpayable"},{"type":"event","name":"ChallengSettled","inputs":[{"name":"challengeId","type":"uint256","indexed":true,"internalType":"uint256"},{"name":"user","type":"address","indexed":true,"internalType":"address"},{"name":"payout","type":"uint256","indexed":false,"internalType":"uint256"},{"name":"success","type":"bool","indexed":false,"internalType":"bool"}],"anonymous":false},{"type":"event","name":"ChallengeCreated","inputs":[{"name":"challengeId","type":"uint256","indexed":true,"internalType":"uint256"},{"name":"user","type":"address","indexed":true,"internalType":"address"},{"name":"targetMiles","type":"uint256","indexed":false,"internalType":"uint256"},{"name":"stakeAmount","type":"uint256","indexed":false,"internalType":"uint256"},{"name":"deadline","type":"uint256","indexed":false,"internalType":"uint256"}],"anonymous":false},{"type":"event","name":"ChallengeVerified","inputs":[{"name":"challengeId","type":"uint256","indexed":true,"internalType":"uint256"},{"name":"actualMiles","type":"uint256","indexed":false,"internalType":"uint256"},{"name":"success","type":"bool","indexed":false,"internalType":"bool"}],"anonymous":false}],"bytecode":{"object":"0x60a060405262989680600455633b9aca006005553480156200001f575f80fd5b5060405162001dce38038062001dce833981810160405281019062000045919062000165565b8173ffffffffffffffffffffffffffffffffffffffff1660808173ffffffffffffffffffffffffffffffffffffffff1681525050805f806101000a81548173ffffffffffffffffffffffffffffffffffffffff021916908373ffffffffffffffffffffffffffffffffffffffff1602179055503360015f6101000a81548173ffffffffffffffffffffffffffffffffffffffff021916908373ffffffffffffffffffffffffffffffffffffffff1602179055505050620001aa565b5f80fd5b5f73ffffffffffffffffffffffffffffffffffffffff82169050919050565b5f6200012f8262000104565b9050919050565b620001418162000123565b81146200014c575f80fd5b50565b5f815190506200015f8162000136565b92915050565b5f80604083850312156200017e576200017d62000100565b5b5f6200018d858286016200014f565b9250506020620001a0858286016200014f565b9150509250929050565b608051611bfd620001d15f395f81816104c5015281816106420152610e3d0152611bfd5ff3fe608060405234801561000f575f80fd5b50600436106100fe575f3560e01c80637dc0d1d011610095578063a2f0572511610064578063a2f05725146102b3578063a5bb55c7146102d1578063a5ff0a13146102ef578063ea1b28e01461031f576100fe565b80637dc0d1d0146102245780638c9bd1b5146102425780638da5cb5b1461025e5780638f1d37761461027c576100fe565b80633e413bee116100d15780633e413bee1461019e57806351d2f246146101bc578063602a29e1146101ec5780637adbf97314610208576100fe565b806311da8e54146101025780631bdd4b74146101325780632e7d299114610162578063375b3c0a14610180575b5f80fd5b61011c6004803603810190610117919061109d565b61033d565b6040516101299190611188565b60405180910390f35b61014c600480360381019061014791906111d2565b6103d0565b60405161015991906112c6565b60405180910390f35b61016a6104b7565b60405161017791906112ef565b60405180910390f35b6101886104bd565b60405161019591906112ef565b60405180910390f35b6101a66104c3565b6040516101b39190611363565b60405180910390f35b6101d660048036038101906101d1919061137c565b6104e7565b6040516101e391906112ef565b60405180910390f35b610206600480360381019061020191906113cc565b610922565b005b610222600480360381019061021d919061109d565b610ae0565b005b61022c610bb1565b6040516102399190611419565b60405180910390f35b61025c600480360381019061025791906113cc565b610bd4565b005b610266610c75565b6040516102739190611419565b60405180910390f35b610296600480360381019061029191906111d2565b610c9a565b6040516102aa989796959493929190611441565b60405180910390f35b6102bb610d16565b6040516102c891906112ef565b60405180910390f35b6102d9610d1c565b6040516102e691906112ef565b60405180910390f35b610309600480360381019061030491906114bd565b610d25565b60405161031691906112ef565b60405180910390f35b610327610d50565b60405161033491906112ef565b60405180910390f35b606060075f8373ffffffffffffffffffffffffffffffffffffffff1673ffffffffffffffffffffffffffffffffffffffff1681526020019081526020015f208054806020026020016040519081016040528092919081815260200182805480156103c457602002820191905f5260205f20905b8154815260200190600101908083116103b0575b50505050509050919050565b6103d8610fe8565b60065f8381526020019081526020015f20604051806101000160405290815f8201548152602001600182015f9054906101000a900473ffffffffffffffffffffffffffffffffffffffff1673ffffffffffffffffffffffffffffffffffffffff1673ffffffffffffffffffffffffffffffffffffffff16815260200160028201548152602001600382015481526020016004820154815260200160058201548152602001600682015f9054906101000a900460ff161515151581526020016006820160019054906101000a900460ff1615151515815250509050919050565b60035481565b60045481565b7f000000000000000000000000000000000000000000000000000000000000000081565b5f60045483101561052d576040517f08c379a000000000000000000000000000000000000000000000000000000000815260040161052490611555565b60405180910390fd5b600554831115610572576040517f08c379a0000000000000000000000000000000000000000000000000000000008152600401610569906115bd565b60405180910390fd5b5f84116105b4576040517f08c379a00000000000000000000000000000000000000000000000000000000081526004016105ab90611625565b60405180910390fd5b620151808210156105fa576040517f08c379a00000000000000000000000000000000000000000000000000000000081526004016105f19061168d565b60405180910390fd5b6276a700821115610640576040517f08c379a0000000000000000000000000000000000000000000000000000000008152600401610637906116f5565b60405180910390fd5b7f000000000000000000000000000000000000000000000000000000000000000073ffffffffffffffffffffffffffffffffffffffff166323b872dd3330866040518463ffffffff1660e01b815260040161069d93929190611713565b6020604051808303815f875af11580156106b9573d5f803e3d5ffd5b505050506040513d601f19601f820116820180604052508101906106dd9190611772565b61071c576040517f08c379a0000000000000000000000000000000000000000000000000000000008152600401610713906117e7565b60405180910390fd5b60025f81548092919061072e90611832565b9190505590506040518061010001604052808281526020013373ffffffffffffffffffffffffffffffffffffffff168152602001858152602001848152602001834261077a9190611879565b81526020015f81526020015f151581526020015f151581525060065f8381526020019081526020015f205f820151815f01556020820151816001015f6101000a81548173ffffffffffffffffffffffffffffffffffffffff021916908373ffffffffffffffffffffffffffffffffffffffff16021790555060408201518160020155606082015181600301556080820151816004015560a0820151816005015560c0820151816006015f6101000a81548160ff02191690831515021790555060e08201518160060160016101000a81548160ff02191690831515021790555090505060075f3373ffffffffffffffffffffffffffffffffffffffff1673ffffffffffffffffffffffffffffffffffffffff1681526020019081526020015f2081908060018154018082558091505060019003905f5260205f20015f90919091909150553373ffffffffffffffffffffffffffffffffffffffff16817f9fc5e80ae4c8ee42b06c52c36ecc991303397f5bd41b8783f619c17c9393ec3f868686426109049190611879565b604051610913939291906118ac565b60405180910390a39392505050565b5f8054906101000a900473ffffffffffffffffffffffffffffffffffffffff1673ffffffffffffffffffffffffffffffffffffffff163373ffffffffffffffffffffffffffffffffffffffff16146109af576040517f08c379a00000000000000000000000000000000000000000000000000000000081526004016109a69061192b565b60405180910390fd5b5f60065f8481526020019081526020015f209050806006015f9054906101000a900460ff1615610a14576040517f08c379a0000000000000000000000000000000000000000000000000000000008152600401610a0b90611993565b60405180910390fd5b8060040154421015610a5b576040517f08c379a0000000000000000000000000000000000000000000000000000000008152600401610a52906119fb565b60405180910390fd5b81816005018190555080600201548210158160060160016101000a81548160ff021916908315150217905550827f2c3953f1e77446b8948e8b9240f379d127a3a1a2cc55eaff43c0388a9af89595838360060160019054906101000a900460ff16604051610aca929190611a19565b60405180910390a2610adb83610d56565b505050565b60015f9054906101000a900473ffffffffffffffffffffffffffffffffffffffff1673ffffffffffffffffffffffffffffffffffffffff163373ffffffffffffffffffffffffffffffffffffffff1614610b6f576040517f08c379a0000000000000000000000000000000000000000000000000000000008152600401610b6690611a8a565b60405180910390fd5b805f806101000a81548173ffffffffffffffffffffffffffffffffffffffff021916908373ffffffffffffffffffffffffffffffffffffffff16021790555050565b5f8054906101000a900473ffffffffffffffffffffffffffffffffffffffff1681565b60015f9054906101000a900473ffffffffffffffffffffffffffffffffffffffff1673ffffffffffffffffffffffffffffffffffffffff163373ffffffffffffffffffffffffffffffffffffffff1614610c63576040517f08c379a0000000000000000000000000000000000000000000000000000000008152600401610c5a90611a8a565b60405180910390fd5b81600481905550806005819055505050565b60015f9054906101000a900473ffffffffffffffffffffffffffffffffffffffff1681565b6006602052805f5260405f205f91509050805f015490806001015f9054906101000a900473ffffffffffffffffffffffffffffffffffffffff1690806002015490806003015490806004015490806005015490806006015f9054906101000a900460ff16908060060160019054906101000a900460ff16905088565b60025481565b5f600354905090565b6007602052815f5260405f208181548110610d3e575f80fd5b905f5260205f20015f91509150505481565b60055481565b5f60065f8381526020019081526020015f209050806006015f9054906101000a900460ff1615610dbb576040517f08c379a0000000000000000000000000000000000000000000000000000000008152600401610db290611993565b60405180910390fd5b6001816006015f6101000a81548160ff0219169083151502179055505f8160060160019054906101000a900460ff1615610f3e575f600a600354610dff9190611ad5565b9050600354811115610e115760035490505b8060035f828254610e229190611b05565b92505081905550808360030154610e399190611879565b91507f000000000000000000000000000000000000000000000000000000000000000073ffffffffffffffffffffffffffffffffffffffff1663a9059cbb846001015f9054906101000a900473ffffffffffffffffffffffffffffffffffffffff16846040518363ffffffff1660e01b8152600401610eb9929190611b38565b6020604051808303815f875af1158015610ed5573d5f803e3d5ffd5b505050506040513d601f19601f82011682018060405250810190610ef99190611772565b610f38576040517f08c379a0000000000000000000000000000000000000000000000000000000008152600401610f2f90611ba9565b60405180910390fd5b50610f5e565b816003015460035f828254610f539190611879565b925050819055505f90505b816001015f9054906101000a900473ffffffffffffffffffffffffffffffffffffffff1673ffffffffffffffffffffffffffffffffffffffff16837ff96ae404dc88de57ef3bdc2f04f2eb11c0507390c93d499e63bdaef747d23497838560060160019054906101000a900460ff16604051610fdb929190611a19565b60405180910390a3505050565b6040518061010001604052805f81526020015f73ffffffffffffffffffffffffffffffffffffffff1681526020015f81526020015f81526020015f81526020015f81526020015f151581526020015f151581525090565b5f80fd5b5f73ffffffffffffffffffffffffffffffffffffffff82169050919050565b5f61106c82611043565b9050919050565b61107c81611062565b8114611086575f80fd5b50565b5f8135905061109781611073565b92915050565b5f602082840312156110b2576110b161103f565b5b5f6110bf84828501611089565b91505092915050565b5f81519050919050565b5f82825260208201905092915050565b5f819050602082019050919050565b5f819050919050565b611103816110f1565b82525050565b5f61111483836110fa565b60208301905092915050565b5f602082019050919050565b5f611136826110c8565b61114081856110d2565b935061114b836110e2565b805f5b8381101561117b5781516111628882611109565b975061116d83611120565b92505060018101905061114e565b5085935050505092915050565b5f6020820190508181035f8301526111a0818461112c565b905092915050565b6111b1816110f1565b81146111bb575f80fd5b50565b5f813590506111cc816111a8565b92915050565b5f602082840312156111e7576111e661103f565b5b5f6111f4848285016111be565b91505092915050565b61120681611062565b82525050565b5f8115159050919050565b6112208161120c565b82525050565b61010082015f82015161123b5f8501826110fa565b50602082015161124e60208501826111fd565b50604082015161126160408501826110fa565b50606082015161127460608501826110fa565b50608082015161128760808501826110fa565b5060a082015161129a60a08501826110fa565b5060c08201516112ad60c0850182611217565b5060e08201516112c060e0850182611217565b50505050565b5f610100820190506112da5f830184611226565b92915050565b6112e9816110f1565b82525050565b5f6020820190506113025f8301846112e0565b92915050565b5f819050919050565b5f61132b61132661132184611043565b611308565b611043565b9050919050565b5f61133c82611311565b9050919050565b5f61134d82611332565b9050919050565b61135d81611343565b82525050565b5f6020820190506113765f830184611354565b92915050565b5f805f606084860312156113935761139261103f565b5b5f6113a0868287016111be565b93505060206113b1868287016111be565b92505060406113c2868287016111be565b9150509250925092565b5f80604083850312156113e2576113e161103f565b5b5f6113ef858286016111be565b9250506020611400858286016111be565b9150509250929050565b61141381611062565b82525050565b5f60208201905061142c5f83018461140a565b92915050565b61143b8161120c565b82525050565b5f610100820190506114555f83018b6112e0565b611462602083018a61140a565b61146f60408301896112e0565b61147c60608301886112e0565b61148960808301876112e0565b61149660a08301866112e0565b6114a360c0830185611432565b6114b060e0830184611432565b9998505050505050505050565b5f80604083850312156114d3576114d261103f565b5b5f6114e085828601611089565b92505060206114f1858286016111be565b9150509250929050565b5f82825260208201905092915050565b7f5374616b6520746f6f206c6f77000000000000000000000000000000000000005f82015250565b5f61153f600d836114fb565b915061154a8261150b565b602082019050919050565b5f6020820190508181035f83015261156c81611533565b9050919050565b7f5374616b6520746f6f20686967680000000000000000000000000000000000005f82015250565b5f6115a7600e836114fb565b91506115b282611573565b602082019050919050565b5f6020820190508181035f8301526115d48161159b565b9050919050565b7f546172676574206d757374206265203e203000000000000000000000000000005f82015250565b5f61160f6012836114fb565b915061161a826115db565b602082019050919050565b5f6020820190508181035f83015261163c81611603565b9050919050565b7f4475726174696f6e20746f6f2073686f727400000000000000000000000000005f82015250565b5f6116776012836114fb565b915061168282611643565b602082019050919050565b5f6020820190508181035f8301526116a48161166b565b9050919050565b7f4475726174696f6e20746f6f206c6f6e670000000000000000000000000000005f82015250565b5f6116df6011836114fb565b91506116ea826116ab565b602082019050919050565b5f6020820190508181035f83015261170c816116d3565b9050919050565b5f6060820190506117265f83018661140a565b611733602083018561140a565b61174060408301846112e0565b949350505050565b6117518161120c565b811461175b575f80fd5b50565b5f8151905061176c81611748565b92915050565b5f602082840312156117875761178661103f565b5b5f6117948482850161175e565b91505092915050565b7f5472616e73666572206661696c656400000000000000000000000000000000005f82015250565b5f6117d1600f836114fb565b91506117dc8261179d565b602082019050919050565b5f6020820190508181035f8301526117fe816117c5565b9050919050565b7f4e487b71000000000000000000000000000000000000000000000000000000005f52601160045260245ffd5b5f61183c826110f1565b91507fffffffffffffffffffffffffffffffffffffffffffffffffffffffffffffffff820361186e5761186d611805565b5b600182019050919050565b5f611883826110f1565b915061188e836110f1565b92508282019050808211156118a6576118a5611805565b5b92915050565b5f6060820190506118bf5f8301866112e0565b6118cc60208301856112e0565b6118d960408301846112e0565b949350505050565b7f4e6f74206f7261636c65000000000000000000000000000000000000000000005f82015250565b5f611915600a836114fb565b9150611920826118e1565b602082019050919050565b5f6020820190508181035f83015261194281611909565b9050919050565b7f416c726561647920736574746c656400000000000000000000000000000000005f82015250565b5f61197d600f836114fb565b915061198882611949565b602082019050919050565b5f6020820190508181035f8301526119aa81611971565b9050919050565b7f4e6f742079657420646561646c696e65000000000000000000000000000000005f82015250565b5f6119e56010836114fb565b91506119f0826119b1565b602082019050919050565b5f6020820190508181035f830152611a12816119d9565b9050919050565b5f604082019050611a2c5f8301856112e0565b611a396020830184611432565b9392505050565b7f4e6f74206f776e657200000000000000000000000000000000000000000000005f82015250565b5f611a746009836114fb565b9150611a7f82611a40565b602082019050919050565b5f6020820190508181035f830152611aa181611a68565b9050919050565b7f4e487b71000000000000000000000000000000000000000000000000000000005f52601260045260245ffd5b5f611adf826110f1565b9150611aea836110f1565b925082611afa57611af9611aa8565b5b828204905092915050565b5f611b0f826110f1565b9150611b1a836110f1565b9250828203905081811115611b3257611b31611805565b5b92915050565b5f604082019050611b4b5f83018561140a565b611b5860208301846112e0565b9392505050565b7f5061796f7574206661696c6564000000000000000000000000000000000000005f82015250565b5f611b93600d836114fb565b9150611b9e82611b5f565b602082019050919050565b5f6020820190508181035f830152611bc081611b87565b905091905056fea26469706673582212208dee7e99d4502bbb835b5c40ab73727687ac0f381bd59f82dd4b07b1ed8cdef264736f6c63430008140033","linkReferences":{}},"methodIdentifiers":{"challengeCount()":"a2f05725","challenges(uint256)":"8f1d3776","createChallenge(uint256,uint256,uint256)":"51d2f246","getChallenge(uint256)":"1bdd4b74","getLoserPool()":"a5bb55c7","getUserChallenges(address)":"11da8e54","loserPool()":"2e7d2991","maxStake()":"ea1b28e0","minStake()":"375b3c0a","oracle()":"7dc0d1d0","owner()":"8da5cb5b","setOracle(address)":"7adbf973","setStakeLimits(uint256,uint256)":"8c9bd1b5","usdc()":"3e413bee","userChallenges(address,uint256)":"a5ff0a13","verifyChallenge(uint256,uint256)":"602a29e1"},"id":1}