{"abi":[{"type":"constructor","inputs":[{"name":"_goalStake","type":"address","internalType":"address"}],"stateMutability":"nonpayable"},{"type":"function","name":"encryptedTokens","inputs":[{"name":"","type":"address","internalType":"address"}],"outputs":[{"name":"","type":"bytes","internalType":"bytes"}],"stateMutability":"view"},{"type":"function","name":"fulfillVerification","inputs":[{"name":"challengeId","type":"uint256","internalType":"uint256"},{"name":"actualMiles","type":"uint256","internalType":"uint256"}],"outputs":[],"stateMutability":"nonpayable"},{"type":"function","name":"goalStake","inputs":[],"outputs":[{"name":"","type":"address","internalType":"contract IGoalStake"}],"stateMutability":"view"},{"type":"function","name":"hasToken","inputs":[{"name":"user","type":"address","internalType":"address"}],"outputs":[{"name":"","type":"bool","internalType":"bool"}],"stateMutability":"view"},{"type":"function","name":"keeper","inputs":[],"outputs":[{"name":"","type":"address","internalType":"address"}],"stateMutability":"view"},{"type":"function","name":"owner","inputs":[],"outputs":[{"name":"","type":"address","internalType":"address"}],"stateMutability":"view"},{"type":"function","name":"pendingVerification","inputs":[{"name":"","type":"uint256","internalType":"uint256"}],"outputs":[{"name":"","type":"bool","internalType":"bool"}],"stateMutability":"view"},{"type":"function","name":"requestVerification","inputs":[{"name":"challengeId","type":"uint256","internalType":"uint256"}],"outputs":[],"stateMutability":"nonpayable"},{"type":"function","name":"setGoalStake","inputs":[{"name":"_goalStake","type":"address","internalType":"address"}],"outputs":[],"stateMutability":"nonpayable"},{"type":"function","name":"setKeeper","inputs":[{"name":"_keeper","type":"address","internalType":"address"}],"outputs":[],"stateMutability":"nonpayable"},{"type":"function","name":"storeToken","inputs":[{"name":"encryptedToken","type":"bytes","internalType":"bytes"}],"outputs":[],"stateMutability":"nonpayable"},{"type":"event","name":"TokenStored","inputs":[{"name":"user","type":"address","indexed":true,"internalType":"address"}],"anonymous":false},{"type":"event","name":"VerificationFulfilled","inputs":[{"name":"challengeId","type":"uint256","indexed":true,"internalType":"uint256"},{"name":"miles","type":"uint256","indexed":false,"internalType":"uint256"},{"name":"success","type":"bool","indexed":false,"internalType":"bool"}],"anonymous":false},{"type":"event","name":"VerificationRequested","inputs":[{"name":"challengeId","type":"uint256","indexed":true,"internalType":"uint256"},{"name":"user","type":"address","indexed":true,"internalType":"address"}],"anonymous":false}],"bytecode":{"object":"0x608060405234801562000010575f80fd5b506040516200188d3803806200188d833981810160405281019062000036919062000161565b805f806101000a81548173ffffffffffffffffffffffffffffffffffffffff021916908373ffffffffffffffffffffffffffffffffffffffff1602179055503360015f6101000a81548173ffffffffffffffffffffffffffffffffffffffff021916908373ffffffffffffffffffffffffffffffffffffffff1602179055503360025f6101000a81548173ffffffffffffffffffffffffffffffffffffffff021916908373ffffffffffffffffffffffffffffffffffffffff1602179055505062000191565b5f80fd5b5f73ffffffffffffffffffffffffffffffffffffffff82169050919050565b5f6200012b8262000100565b9050919050565b6200013d816200011f565b811462000148575f80fd5b50565b5f815190506200015b8162000132565b92915050565b5f60208284031215620001795762000178620000fc565b5b5f62000188848285016200014b565b91505092915050565b6116ee806200019f5f395ff3fe608060405234801561000f575f80fd5b50600436106100a7575f3560e01c80638da5cb5b1161006f5780638da5cb5b1461014d5780639bb0f5991461016b578063aced16611461019b578063b8106b56146101b9578063c2f4ce1d146101d5578063dac75c8e14610205576100a7565b80630c020f08146100ab5780635226bc37146100c7578063748747e6146100f75780637ac0db4e14610113578063838c016a1461012f575b5f80fd5b6100c560048036038101906100c09190610c4f565b610221565b005b6100e160048036038101906100dc9190610c4f565b61058e565b6040516100ee9190610c94565b60405180910390f35b610111600480360381019061010c9190610d07565b6105ab565b005b61012d60048036038101906101289190610d32565b61067d565b005b610137610953565b6040516101449190610dcb565b60405180910390f35b610155610976565b6040516101629190610df3565b60405180910390f35b61018560048036038101906101809190610d07565b61099b565b6040516101929190610c94565b60405180910390f35b6101a36109ef565b6040516101b09190610df3565b60405180910390f35b6101d360048036038101906101ce9190610e6d565b610a14565b005b6101ef60048036038101906101ea9190610d07565b610aa8565b6040516101fc9190610f42565b60405180910390f35b61021f600480360381019061021a9190610d07565b610b43565b005b60025f9054906101000a900473ffffffffffffffffffffffffffffffffffffffff1673ffffffffffffffffffffffffffffffffffffffff163373ffffffffffffffffffffffffffffffffffffffff1614806102c8575060015f9054906101000a900473ffffffffffffffffffffffffffffffffffffffff1673ffffffffffffffffffffffffffffffffffffffff163373ffffffffffffffffffffffffffffffffffffffff16145b610307576040517f08c379a00000000000000000000000000000000000000000000000000000000081526004016102fe90610fbc565b60405180910390fd5b5f805f805f9054906101000a900473ffffffffffffffffffffffffffffffffffffffff1673ffffffffffffffffffffffffffffffffffffffff16631bdd4b74856040518263ffffffff1660e01b81526004016103639190610fe9565b61010060405180830381865afa15801561037f573d5f803e3d5ffd5b505050506040513d601f19601f820116820180604052508101906103a39190611054565b509650509550505093505080156103ef576040517f08c379a00000000000000000000000000000000000000000000000000000000081526004016103e69061114f565b60405180910390fd5b81421015610432576040517f08c379a0000000000000000000000000000000000000000000000000000000008152600401610429906111b7565b60405180910390fd5b5f60035f8573ffffffffffffffffffffffffffffffffffffffff1673ffffffffffffffffffffffffffffffffffffffff1681526020019081526020015f20805461047b90611202565b9050116104bd576040517f08c379a00000000000000000000000000000000000000000000000000000000081526004016104b49061127c565b60405180910390fd5b60045f8581526020019081526020015f205f9054906101000a900460ff161561051b576040517f08c379a0000000000000000000000000000000000000000000000000000000008152600401610512906112e4565b60405180910390fd5b600160045f8681526020019081526020015f205f6101000a81548160ff0219169083151502179055508273ffffffffffffffffffffffffffffffffffffffff16847fa3cac7c72dca9bd0861f2c164c8f3b00e8a9db7c0539ea939c9db9bbda01afc660405160405180910390a350505050565b6004602052805f5260405f205f915054906101000a900460ff1681565b60015f9054906101000a900473ffffffffffffffffffffffffffffffffffffffff1673ffffffffffffffffffffffffffffffffffffffff163373ffffffffffffffffffffffffffffffffffffffff161461063a576040517f08c379a00000000000000000000000000000000000000000000000000000000081526004016106319061134c565b60405180910390fd5b8060025f6101000a81548173ffffffffffffffffffffffffffffffffffffffff021916908373ffffffffffffffffffffffffffffffffffffffff16021790555050565b60025f9054906101000a900473ffffffffffffffffffffffffffffffffffffffff1673ffffffffffffffffffffffffffffffffffffffff163373ffffffffffffffffffffffffffffffffffffffff161480610724575060015f9054906101000a900473ffffffffffffffffffffffffffffffffffffffff1673ffffffffffffffffffffffffffffffffffffffff163373ffffffffffffffffffffffffffffffffffffffff16145b610763576040517f08c379a000000000000000000000000000000000000000000000000000000000815260040161075a90610fbc565b60405180910390fd5b60045f8381526020019081526020015f205f9054906101000a900460ff166107c0576040517f08c379a00000000000000000000000000000000000000000000000000000000081526004016107b7906113b4565b60405180910390fd5b5f60045f8481526020019081526020015f205f6101000a81548160ff0219169083151502179055505f8054906101000a900473ffffffffffffffffffffffffffffffffffffffff1673ffffffffffffffffffffffffffffffffffffffff1663602a29e183836040518363ffffffff1660e01b81526004016108429291906113d2565b5f604051808303815f87803b158015610859575f80fd5b505af115801561086b573d5f803e3d5ffd5b505050505f805f8054906101000a900473ffffffffffffffffffffffffffffffffffffffff1673ffffffffffffffffffffffffffffffffffffffff16631bdd4b74856040518263ffffffff1660e01b81526004016108c99190610fe9565b61010060405180830381865afa1580156108e5573d5f803e3d5ffd5b505050506040513d601f19601f820116820180604052508101906109099190611054565b97509750505050505050837f3d0a3abfdece973e59bce2142b6ee032998e18b2088935a44c11feb2fe9b7f4484836040516109459291906113f9565b60405180910390a250505050565b5f8054906101000a900473ffffffffffffffffffffffffffffffffffffffff1681565b60015f9054906101000a900473ffffffffffffffffffffffffffffffffffffffff1681565b5f8060035f8473ffffffffffffffffffffffffffffffffffffffff1673ffffffffffffffffffffffffffffffffffffffff1681526020019081526020015f2080546109e590611202565b9050119050919050565b60025f9054906101000a900473ffffffffffffffffffffffffffffffffffffffff1681565b818160035f3373ffffffffffffffffffffffffffffffffffffffff1673ffffffffffffffffffffffffffffffffffffffff1681526020019081526020015f209182610a609291906115eb565b503373ffffffffffffffffffffffffffffffffffffffff167fd9052204b6e009a5b1732bf989b0390a8a93b3a39a5a37cbfd00980fca9eddec60405160405180910390a25050565b6003602052805f5260405f205f915090508054610ac490611202565b80601f0160208091040260200160405190810160405280929190818152602001828054610af090611202565b8015610b3b5780601f10610b1257610100808354040283529160200191610b3b565b820191905f5260205f20905b815481529060010190602001808311610b1e57829003601f168201915b505050505081565b60015f9054906101000a900473ffffffffffffffffffffffffffffffffffffffff1673ffffffffffffffffffffffffffffffffffffffff163373ffffffffffffffffffffffffffffffffffffffff1614610bd2576040517f08c379a0000000000000000000000000000000000000000000000000000000008152600401610bc99061134c565b60405180910390fd5b805f806101000a81548173ffffffffffffffffffffffffffffffffffffffff021916908373ffffffffffffffffffffffffffffffffffffffff16021790555050565b5f80fd5b5f80fd5b5f819050919050565b610c2e81610c1c565b8114610c38575f80fd5b50565b5f81359050610c4981610c25565b92915050565b5f60208284031215610c6457610c63610c14565b5b5f610c7184828501610c3b565b91505092915050565b5f8115159050919050565b610c8e81610c7a565b82525050565b5f602082019050610ca75f830184610c85565b92915050565b5f73ffffffffffffffffffffffffffffffffffffffff82169050919050565b5f610cd682610cad565b9050919050565b610ce681610ccc565b8114610cf0575f80fd5b50565b5f81359050610d0181610cdd565b92915050565b5f60208284031215610d1c57610d1b610c14565b5b5f610d2984828501610cf3565b91505092915050565b5f8060408385031215610d4857610d47610c14565b5b5f610d5585828601610c3b565b9250506020610d6685828601610c3b565b9150509250929050565b5f819050919050565b5f610d93610d8e610d8984610cad565b610d70565b610cad565b9050919050565b5f610da482610d79565b9050919050565b5f610db582610d9a565b9050919050565b610dc581610dab565b82525050565b5f602082019050610dde5f830184610dbc565b92915050565b610ded81610ccc565b82525050565b5f602082019050610e065f830184610de4565b92915050565b5f80fd5b5f80fd5b5f80fd5b5f8083601f840112610e2d57610e2c610e0c565b5b8235905067ffffffffffffffff811115610e4a57610e49610e10565b5b602083019150836001820283011115610e6657610e65610e14565b5b9250929050565b5f8060208385031215610e8357610e82610c14565b5b5f83013567ffffffffffffffff811115610ea057610e9f610c18565b5b610eac85828601610e18565b92509250509250929050565b5f81519050919050565b5f82825260208201905092915050565b5f5b83811015610eef578082015181840152602081019050610ed4565b5f8484015250505050565b5f601f19601f8301169050919050565b5f610f1482610eb8565b610f1e8185610ec2565b9350610f2e818560208601610ed2565b610f3781610efa565b840191505092915050565b5f6020820190508181035f830152610f5a8184610f0a565b905092915050565b5f82825260208201905092915050565b7f4e6f7420617574686f72697a65640000000000000000000000000000000000005f82015250565b5f610fa6600e83610f62565b9150610fb182610f72565b602082019050919050565b5f6020820190508181035f830152610fd381610f9a565b9050919050565b610fe381610c1c565b82525050565b5f602082019050610ffc5f830184610fda565b92915050565b5f8151905061101081610c25565b92915050565b5f8151905061102481610cdd565b92915050565b61103381610c7a565b811461103d575f80fd5b50565b5f8151905061104e8161102a565b92915050565b5f805f805f805f80610100898b03121561107157611070610c14565b5b5f61107e8b828c01611002565b985050602061108f8b828c01611016565b97505060406110a08b828c01611002565b96505060606110b18b828c01611002565b95505060806110c28b828c01611002565b94505060a06110d38b828c01611002565b93505060c06110e48b828c01611040565b92505060e06110f58b828c01611040565b9150509295985092959890939650565b7f416c726561647920736574746c656400000000000000000000000000000000005f82015250565b5f611139600f83610f62565b915061114482611105565b602082019050919050565b5f6020820190508181035f8301526111668161112d565b9050919050565b7f4e6f742079657420646561646c696e65000000000000000000000000000000005f82015250565b5f6111a1601083610f62565b91506111ac8261116d565b602082019050919050565b5f6020820190508181035f8301526111ce81611195565b9050919050565b7f4e487b71000000000000000000000000000000000000000000000000000000005f52602260045260245ffd5b5f600282049050600182168061121957607f821691505b60208210810361122c5761122b6111d5565b5b50919050565b7f4e6f20746f6b656e20666f7220757365720000000000000000000000000000005f82015250565b5f611266601183610f62565b915061127182611232565b602082019050919050565b5f6020820190508181035f8301526112938161125a565b9050919050565b7f416c72656164792070656e64696e6700000000000000000000000000000000005f82015250565b5f6112ce600f83610f62565b91506112d98261129a565b602082019050919050565b5f6020820190508181035f8301526112fb816112c2565b9050919050565b7f4e6f74206f776e657200000000000000000000000000000000000000000000005f82015250565b5f611336600983610f62565b915061134182611302565b602082019050919050565b5f6020820190508181035f8301526113638161132a565b9050919050565b7f4e6f742070656e64696e670000000000000000000000000000000000000000005f82015250565b5f61139e600b83610f62565b91506113a98261136a565b602082019050919050565b5f6020820190508181035f8301526113cb81611392565b9050919050565b5f6040820190506113e55f830185610fda565b6113f26020830184610fda565b9392505050565b5f60408201905061140c5f830185610fda565b6114196020830184610c85565b9392505050565b5f82905092915050565b7f4e487b71000000000000000000000000000000000000000000000000000000005f52604160045260245ffd5b5f819050815f5260205f209050919050565b5f6020601f8301049050919050565b5f82821b905092915050565b5f600883026114b37fffffffffffffffffffffffffffffffffffffffffffffffffffffffffffffffff82611478565b6114bd8683611478565b95508019841693508086168417925050509392505050565b5f6114ef6114ea6114e584610c1c565b610d70565b610c1c565b9050919050565b5f819050919050565b611508836114d5565b61151c611514826114f6565b848454611484565b825550505050565b5f90565b611530611524565b61153b8184846114ff565b505050565b5b8181101561155e576115535f82611528565b600181019050611541565b5050565b601f8211156115a35761157481611457565b61157d84611469565b8101602085101561158c578190505b6115a061159885611469565b830182611540565b50505b505050565b5f82821c905092915050565b5f6115c35f19846008026115a8565b1980831691505092915050565b5f6115db83836115b4565b9150826002028217905092915050565b6115f58383611420565b67ffffffffffffffff81111561160e5761160d61142a565b5b6116188254611202565b611623828285611562565b5f601f831160018114611650575f841561163e578287013590505b61164885826115d0565b8655506116af565b601f19841661165e86611457565b5f5b8281101561168557848901358255600182019150602085019450602081019050611660565b868310156116a2578489013561169e601f8916826115b4565b8355505b6001600288020188555050505b5050505050505056fea2646970667358221220316ad21dd1a76b2005594cde2dea713b4933fa53dbf9812138a1654d3041ee3664736f6c63430008140033","linkReferences":{}},"methodIdentifiers":{"encryptedTokens(address)":"c2f4ce1d","fulfillVerification(uint256,uint256)":"7ac0db4e","goalStake()":"838c016a","hasToken(address)":"9bb0f599","keeper()":"aced1661","owner()":"8da5cb5b","pendingVerification(uint256)":"5226bc37","requestVerification(uint256)":"0c020f08","setGoalStake(address)":"dac75c8e","setKeeper(address)":"748747e6","storeToken(bytes)":"b8106b56"},"id":25}