{"abi":[{"type":"constructor","inputs":[{"name":"_goalStake","type":"address","internalType":"address"}],"stateMutability":"nonpayable"},{"type":"function","name":"encryptedTokens","inputs":[{"name":"","type":"address","internalType":"address"}],"outputs":[{"name":"","type":"bytes","internalType":"bytes"}],"stateMutability":"view"},{"type":"function","name":"fulfillVerification","inputs":[{"name":"challengeId","type":"uint256","internalType":"uint256"},{"name":"actualMiles","type":"uint256","internalType":"uint256"}],"outputs":[],"stateMutability":"nonpayable"},{"type":"function","name":"goalStake","inputs":[],"outputs":[{"name":"","type":"address","internalType":"contract IGoalStake"}],"stateMutability":"view"},{"type":"function","name":"hasToken","inputs":[{"name":"user","type":"address","internalType":"address"}],"outputs":[{"name":"","type":"bool","internalType":"bool"}],"stateMutability":"view"},{"type":"function","name":"keeper","inputs":[],"outputs":[{"name":"","type":"address","internalType":"address"}],"stateMutability":"view"},{"type":"function","name":"owner","inputs":[],"outputs":[{"name":"","type":"address","internalType":"address"}],"stateMutability":"view"},{"type":"function","name":"pendingVerification","inputs":[{"name":"","type":"uint256","internalType":"uint256"}],"outputs":[{"name":"","type":"bool","internalType":"bool"}],"stateMutability":"view"},{"type":"function","name":"requestVerification","inputs":[{"name":"challengeId","type":"uint256","internalType":"uint256"}],"outputs":[],"stateMutability":"nonpayable"},{"type":"function","name":"setGoalStake","inputs":[{"name":"_goalStake","type":"address","internalType":"address"}],"outputs":[],"stateMutability":"nonpayable"},{"type":"function","name":"setKeeper","inputs":[{"name":"_keeper","type":"address","internalType":"address"}],"outputs":[],"stateMutability":"nonpayable"},{"type":"function","name":"storeToken","inputs":[{"name":"encryptedToken","type":"bytes","internalType":"bytes"}],"outputs":[],"stateMutability":"nonpayable"},{"type":"event","name":"TokenStored","inputs":[{"name":"user","type":"address","indexed":true,"internalType":"address"}],"anonymous":false},{"type":"event","name":"VerificationFulfilled","inputs":[{"name":"challengeId","type":"uint256","indexed":true,"internalType":"uint256"},{"name":"miles","type":"uint256","indexed":false,"internalType":"uint256"},{"name":"success","type":"bool","indexed":false,"internalType":"bool"}],"anonymous":false},{"type":"event","name":"VerificationRequested","inputs":[{"name":"challengeId","type":"uint256","indexed":true,"internalType":"uint256"},{"name":"user","type":"address","indexed":true,"internalType":"address"}],"anonymous":false}],"bytecode":{"object":"0x608060405234801561000f575f5ffd5b5060405161187738038061187783398181016040528101906100319190610154565b805f5f6101000a81548173ffffffffffffffffffffffffffffffffffffffff021916908373ffffffffffffffffffffffffffffffffffffffff1602179055503360015f6101000a81548173ffffffffffffffffffffffffffffffffffffffff021916908373ffffffffffffffffffffffffffffffffffffffff1602179055503360025f6101000a81548173ffffffffffffffffffffffffffffffffffffffff021916908373ffffffffffffffffffffffffffffffffffffffff1602179055505061017f565b5f5ffd5b5f73ffffffffffffffffffffffffffffffffffffffff82169050919050565b5f610123826100fa565b9050919050565b61013381610119565b811461013d575f5ffd5b50565b5f8151905061014e8161012a565b92915050565b5f60208284031215610169576101686100f6565b5b5f61017684828501610140565b91505092915050565b6116eb8061018c5f395ff3fe608060405234801561000f575f5ffd5b50600436106100a7575f3560e01c80638da5cb5b1161006f5780638da5cb5b1461014d5780639bb0f5991461016b578063aced16611461019b578063b8106b56146101b9578063c2f4ce1d146101d5578063dac75c8e14610205576100a7565b80630c020f08146100ab5780635226bc37146100c7578063748747e6146100f75780637ac0db4e14610113578063838c016a1461012f575b5f5ffd5b6100c560048036038101906100c09190610c52565b610221565b005b6100e160048036038101906100dc9190610c52565b61058e565b6040516100ee9190610c97565b60405180910390f35b610111600480360381019061010c9190610d0a565b6105ab565b005b61012d60048036038101906101289190610d35565b61067d565b005b610137610955565b6040516101449190610dce565b60405180910390f35b610155610979565b6040516101629190610df6565b60405180910390f35b61018560048036038101906101809190610d0a565b61099e565b6040516101929190610c97565b60405180910390f35b6101a36109f2565b6040516101b09190610df6565b60405180910390f35b6101d360048036038101906101ce9190610e70565b610a17565b005b6101ef60048036038101906101ea9190610d0a565b610aab565b6040516101fc9190610f2b565b60405180910390f35b61021f600480360381019061021a9190610d0a565b610b46565b005b60025f9054906101000a900473ffffffffffffffffffffffffffffffffffffffff1673ffffffffffffffffffffffffffffffffffffffff163373ffffffffffffffffffffffffffffffffffffffff1614806102c8575060015f9054906101000a900473ffffffffffffffffffffffffffffffffffffffff1673ffffffffffffffffffffffffffffffffffffffff163373ffffffffffffffffffffffffffffffffffffffff16145b610307576040517f08c379a00000000000000000000000000000000000000000000000000000000081526004016102fe90610fa5565b60405180910390fd5b5f5f5f5f5f9054906101000a900473ffffffffffffffffffffffffffffffffffffffff1673ffffffffffffffffffffffffffffffffffffffff16631bdd4b74856040518263ffffffff1660e01b81526004016103639190610fd2565b61010060405180830381865afa15801561037f573d5f5f3e3d5ffd5b505050506040513d601f19601f820116820180604052508101906103a3919061103d565b509650509550505093505080156103ef576040517f08c379a00000000000000000000000000000000000000000000000000000000081526004016103e690611138565b60405180910390fd5b81421015610432576040517f08c379a0000000000000000000000000000000000000000000000000000000008152600401610429906111a0565b60405180910390fd5b5f60035f8573ffffffffffffffffffffffffffffffffffffffff1673ffffffffffffffffffffffffffffffffffffffff1681526020019081526020015f20805461047b906111eb565b9050116104bd576040517f08c379a00000000000000000000000000000000000000000000000000000000081526004016104b490611265565b60405180910390fd5b60045f8581526020019081526020015f205f9054906101000a900460ff161561051b576040517f08c379a0000000000000000000000000000000000000000000000000000000008152600401610512906112cd565b60405180910390fd5b600160045f8681526020019081526020015f205f6101000a81548160ff0219169083151502179055508273ffffffffffffffffffffffffffffffffffffffff16847fa3cac7c72dca9bd0861f2c164c8f3b00e8a9db7c0539ea939c9db9bbda01afc660405160405180910390a350505050565b6004602052805f5260405f205f915054906101000a900460ff1681565b60015f9054906101000a900473ffffffffffffffffffffffffffffffffffffffff1673ffffffffffffffffffffffffffffffffffffffff163373ffffffffffffffffffffffffffffffffffffffff161461063a576040517f08c379a000000000000000000000000000000000000000000000000000000000815260040161063190611335565b60405180910390fd5b8060025f6101000a81548173ffffffffffffffffffffffffffffffffffffffff021916908373ffffffffffffffffffffffffffffffffffffffff16021790555050565b60025f9054906101000a900473ffffffffffffffffffffffffffffffffffffffff1673ffffffffffffffffffffffffffffffffffffffff163373ffffffffffffffffffffffffffffffffffffffff161480610724575060015f9054906101000a900473ffffffffffffffffffffffffffffffffffffffff1673ffffffffffffffffffffffffffffffffffffffff163373ffffffffffffffffffffffffffffffffffffffff16145b610763576040517f08c379a000000000000000000000000000000000000000000000000000000000815260040161075a90610fa5565b60405180910390fd5b60045f8381526020019081526020015f205f9054906101000a900460ff166107c0576040517f08c379a00000000000000000000000000000000000000000000000000000000081526004016107b79061139d565b60405180910390fd5b5f60045f8481526020019081526020015f205f6101000a81548160ff0219169083151502179055505f5f9054906101000a900473ffffffffffffffffffffffffffffffffffffffff1673ffffffffffffffffffffffffffffffffffffffff1663602a29e183836040518363ffffffff1660e01b81526004016108439291906113bb565b5f604051808303815f87803b15801561085a575f5ffd5b505af115801561086c573d5f5f3e3d5ffd5b505050505f5f5f5f9054906101000a900473ffffffffffffffffffffffffffffffffffffffff1673ffffffffffffffffffffffffffffffffffffffff16631bdd4b74856040518263ffffffff1660e01b81526004016108cb9190610fd2565b61010060405180830381865afa1580156108e7573d5f5f3e3d5ffd5b505050506040513d601f19601f8201168201806040525081019061090b919061103d565b97509750505050505050837f3d0a3abfdece973e59bce2142b6ee032998e18b2088935a44c11feb2fe9b7f4484836040516109479291906113e2565b60405180910390a250505050565b5f5f9054906101000a900473ffffffffffffffffffffffffffffffffffffffff1681565b60015f9054906101000a900473ffffffffffffffffffffffffffffffffffffffff1681565b5f5f60035f8473ffffffffffffffffffffffffffffffffffffffff1673ffffffffffffffffffffffffffffffffffffffff1681526020019081526020015f2080546109e8906111eb565b9050119050919050565b60025f9054906101000a900473ffffffffffffffffffffffffffffffffffffffff1681565b818160035f3373ffffffffffffffffffffffffffffffffffffffff1673ffffffffffffffffffffffffffffffffffffffff1681526020019081526020015f209182610a639291906115e8565b503373ffffffffffffffffffffffffffffffffffffffff167fd9052204b6e009a5b1732bf989b0390a8a93b3a39a5a37cbfd00980fca9eddec60405160405180910390a25050565b6003602052805f5260405f205f915090508054610ac7906111eb565b80601f0160208091040260200160405190810160405280929190818152602001828054610af3906111eb565b8015610b3e5780601f10610b1557610100808354040283529160200191610b3e565b820191905f5260205f20905b815481529060010190602001808311610b2157829003601f168201915b505050505081565b60015f9054906101000a900473ffffffffffffffffffffffffffffffffffffffff1673ffffffffffffffffffffffffffffffffffffffff163373ffffffffffffffffffffffffffffffffffffffff1614610bd5576040517f08c379a0000000000000000000000000000000000000000000000000000000008152600401610bcc90611335565b60405180910390fd5b805f5f6101000a81548173ffffffffffffffffffffffffffffffffffffffff021916908373ffffffffffffffffffffffffffffffffffffffff16021790555050565b5f5ffd5b5f5ffd5b5f819050919050565b610c3181610c1f565b8114610c3b575f5ffd5b50565b5f81359050610c4c81610c28565b92915050565b5f60208284031215610c6757610c66610c17565b5b5f610c7484828501610c3e565b91505092915050565b5f8115159050919050565b610c9181610c7d565b82525050565b5f602082019050610caa5f830184610c88565b92915050565b5f73ffffffffffffffffffffffffffffffffffffffff82169050919050565b5f610cd982610cb0565b9050919050565b610ce981610ccf565b8114610cf3575f5ffd5b50565b5f81359050610d0481610ce0565b92915050565b5f60208284031215610d1f57610d1e610c17565b5b5f610d2c84828501610cf6565b91505092915050565b5f5f60408385031215610d4b57610d4a610c17565b5b5f610d5885828601610c3e565b9250506020610d6985828601610c3e565b9150509250929050565b5f819050919050565b5f610d96610d91610d8c84610cb0565b610d73565b610cb0565b9050919050565b5f610da782610d7c565b9050919050565b5f610db882610d9d565b9050919050565b610dc881610dae565b82525050565b5f602082019050610de15f830184610dbf565b92915050565b610df081610ccf565b82525050565b5f602082019050610e095f830184610de7565b92915050565b5f5ffd5b5f5ffd5b5f5ffd5b5f5f83601f840112610e3057610e2f610e0f565b5b8235905067ffffffffffffffff811115610e4d57610e4c610e13565b5b602083019150836001820283011115610e6957610e68610e17565b5b9250929050565b5f5f60208385031215610e8657610e85610c17565b5b5f83013567ffffffffffffffff811115610ea357610ea2610c1b565b5b610eaf85828601610e1b565b92509250509250929050565b5f81519050919050565b5f82825260208201905092915050565b8281835e5f83830152505050565b5f601f19601f8301169050919050565b5f610efd82610ebb565b610f078185610ec5565b9350610f17818560208601610ed5565b610f2081610ee3565b840191505092915050565b5f6020820190508181035f830152610f438184610ef3565b905092915050565b5f82825260208201905092915050565b7f4e6f7420617574686f72697a65640000000000000000000000000000000000005f82015250565b5f610f8f600e83610f4b565b9150610f9a82610f5b565b602082019050919050565b5f6020820190508181035f830152610fbc81610f83565b9050919050565b610fcc81610c1f565b82525050565b5f602082019050610fe55f830184610fc3565b92915050565b5f81519050610ff981610c28565b92915050565b5f8151905061100d81610ce0565b92915050565b61101c81610c7d565b8114611026575f5ffd5b50565b5f8151905061103781611013565b92915050565b5f5f5f5f5f5f5f5f610100898b03121561105a57611059610c17565b5b5f6110678b828c01610feb565b98505060206110788b828c01610fff565b97505060406110898b828c01610feb565b965050606061109a8b828c01610feb565b95505060806110ab8b828c01610feb565b94505060a06110bc8b828c01610feb565b93505060c06110cd8b828c01611029565b92505060e06110de8b828c01611029565b9150509295985092959890939650565b7f416c726561647920736574746c656400000000000000000000000000000000005f82015250565b5f611122600f83610f4b565b915061112d826110ee565b602082019050919050565b5f6020820190508181035f83015261114f81611116565b9050919050565b7f4e6f742079657420646561646c696e65000000000000000000000000000000005f82015250565b5f61118a601083610f4b565b915061119582611156565b602082019050919050565b5f6020820190508181035f8301526111b78161117e565b9050919050565b7f4e487b71000000000000000000000000000000000000000000000000000000005f52602260045260245ffd5b5f600282049050600182168061120257607f821691505b602082108103611215576112146111be565b5b50919050565b7f4e6f20746f6b656e20666f7220757365720000000000000000000000000000005f82015250565b5f61124f601183610f4b565b915061125a8261121b565b602082019050919050565b5f6020820190508181035f83015261127c81611243565b9050919050565b7f416c72656164792070656e64696e6700000000000000000000000000000000005f82015250565b5f6112b7600f83610f4b565b91506112c282611283565b602082019050919050565b5f6020820190508181035f8301526112e4816112ab565b9050919050565b7f4e6f74206f776e657200000000000000000000000000000000000000000000005f82015250565b5f61131f600983610f4b565b915061132a826112eb565b602082019050919050565b5f6020820190508181035f83015261134c81611313565b9050919050565b7f4e6f742070656e64696e670000000000000000000000000000000000000000005f82015250565b5f611387600b83610f4b565b915061139282611353565b602082019050919050565b5f6020820190508181035f8301526113b48161137b565b9050919050565b5f6040820190506113ce5f830185610fc3565b6113db6020830184610fc3565b9392505050565b5f6040820190506113f55f830185610fc3565b6114026020830184610c88565b9392505050565b5f82905092915050565b7f4e487b71000000000000000000000000000000000000000000000000000000005f52604160045260245ffd5b5f819050815f5260205f209050919050565b5f6020601f8301049050919050565b5f82821b905092915050565b5f6008830261149c7fffffffffffffffffffffffffffffffffffffffffffffffffffffffffffffffff82611461565b6114a68683611461565b95508019841693508086168417925050509392505050565b5f6114d86114d36114ce84610c1f565b610d73565b610c1f565b9050919050565b5f819050919050565b6114f1836114be565b6115056114fd826114df565b84845461146d565b825550505050565b5f5f905090565b61151c61150d565b6115278184846114e8565b505050565b5f5b8281101561154d576115425f828401611514565b60018101905061152e565b505050565b601f8211156115a0578282111561159f5761156c81611440565b61157583611452565b61157e85611452565b602086101561158b575f90505b80830161159a8284038261152c565b505050505b5b505050565b5f82821c905092915050565b5f6115c05f19846008026115a5565b1980831691505092915050565b5f6115d883836115b1565b9150826002028217905092915050565b6115f28383611409565b67ffffffffffffffff81111561160b5761160a611413565b5b61161582546111eb565b611620828285611552565b5f601f83116001811461164d575f841561163b578287013590505b61164585826115cd565b8655506116ac565b601f19841661165b86611440565b5f5b828110156116825784890135825560018201915060208501945060208101905061165d565b8683101561169f578489013561169b601f8916826115b1565b8355505b6001600288020188555050505b5050505050505056fea2646970667358221220e273c2093e1b8fea0638954bdbe489828fc481e51e6e02c04e91ae04401f832164736f6c63430008210033","linkReferences":{}},"methodIdentifiers":{"encryptedTokens(address)":"c2f4ce1d","fulfillVerification(uint256,uint256)":"7ac0db4e","goalStake()":"838c016a","hasToken(address)":"9bb0f599","keeper()":"aced1661","owner()":"8da5cb5b","pendingVerification(uint256)":"5226bc37","requestVerification(uint256)":"0c020f08","setGoalStake(address)":"dac75c8e","setKeeper(address)":"748747e6","storeToken(bytes)":"b8106b56"},"id":0}