{"abi":[{"type":"constructor","inputs":[{"name":"_router","type":"address","internalType":"address"},{"name":"_goalStake","type":"address","internalType":"address"},{"name":"_donId","type":"bytes32","internalType":"bytes32"},{"name":"_subscriptionId","type":"uint64","internalType":"uint64"}],"stateMutability":"nonpayable"},{"type":"function","name":"checkUpkeep","inputs":[{"name":"","type":"bytes","internalType":"bytes"}],"outputs":[{"name":"upkeepNeeded","type":"bool","internalType":"bool"},{"name":"performData","type":"bytes","internalType":"bytes"}],"stateMutability":"view"},{"type":"function","name":"donId","inputs":[],"outputs":[{"name":"","type":"bytes32","internalType":"bytes32"}],"stateMutability":"view"},{"type":"function","name":"functionsSource","inputs":[],"outputs":[{"name":"","type":"bytes","internalType":"bytes"}],"stateMutability":"view"},{"type":"function","name":"gasLimit","inputs":[],"outputs":[{"name":"","type":"uint32","internalType":"uint32"}],"stateMutability":"view"},{"type":"function","name":"goalStake","inputs":[],"outputs":[{"name":"","type":"address","internalType":"contract IGoalStake"}],"stateMutability":"view"},{"type":"function","name":"handleOracleFulfillment","inputs":[{"name":"requestId","type":"bytes32","internalType":"bytes32"},{"name":"response","type":"bytes","internalType":"bytes"},{"name":"err","type":"bytes","internalType":"bytes"}],"outputs":[],"stateMutability":"nonpayable"},{"type":"function","name":"hasToken","inputs":[{"name":"user","type":"address","internalType":"address"}],"outputs":[{"name":"","type":"bool","internalType":"bool"}],"stateMutability":"view"},{"type":"function","name":"lastCheckedId","inputs":[],"outputs":[{"name":"","type":"uint256","internalType":"uint256"}],"stateMutability":"view"},{"type":"function","name":"manualVerify","inputs":[{"name":"challengeId","type":"uint256","internalType":"uint256"},{"name":"actualMiles","type":"uint256","internalType":"uint256"}],"outputs":[],"stateMutability":"nonpayable"},{"type":"function","name":"owner","inputs":[],"outputs":[{"name":"","type":"address","internalType":"address"}],"stateMutability":"view"},{"type":"function","name":"pendingVerification","inputs":[{"name":"","type":"uint256","internalType":"uint256"}],"outputs":[{"name":"","type":"bool","internalType":"bool"}],"stateMutability":"view"},{"type":"function","name":"performUpkeep","inputs":[{"name":"performData","type":"bytes","internalType":"bytes"}],"outputs":[],"stateMutability":"nonpayable"},{"type":"function","name":"requestToChallengeId","inputs":[{"name":"","type":"bytes32","internalType":"bytes32"}],"outputs":[{"name":"","type":"uint256","internalType":"uint256"}],"stateMutability":"view"},{"type":"function","name":"setDonId","inputs":[{"name":"_donId","type":"bytes32","internalType":"bytes32"}],"outputs":[],"stateMutability":"nonpayable"},{"type":"function","name":"setFunctionsSource","inputs":[{"name":"source","type":"bytes","internalType":"bytes"}],"outputs":[],"stateMutability":"nonpayable"},{"type":"function","name":"setGasLimit","inputs":[{"name":"_gasLimit","type":"uint32","internalType":"uint32"}],"outputs":[],"stateMutability":"nonpayable"},{"type":"function","name":"setGoalStake","inputs":[{"name":"_goalStake","type":"address","internalType":"address"}],"outputs":[],"stateMutability":"nonpayable"},{"type":"function","name":"setSubscriptionId","inputs":[{"name":"_subscriptionId","type":"uint64","internalType":"uint64"}],"outputs":[],"stateMutability":"nonpayable"},{"type":"function","name":"storeToken","inputs":[{"name":"token","type":"string","internalType":"string"}],"outputs":[],"stateMutability":"nonpayable"},{"type":"function","name":"stravaTokens","inputs":[{"name":"","type":"address","internalType":"address"}],"outputs":[{"name":"","type":"string","internalType":"string"}],"stateMutability":"view"},{"type":"function","name":"subscriptionId","inputs":[],"outputs":[{"name":"","type":"uint64","internalType":"uint64"}],"stateMutability":"view"},{"type":"function","name":"transferOwnership","inputs":[{"name":"newOwner","type":"address","internalType":"address"}],"outputs":[],"stateMutability":"nonpayable"},{"type":"event","name":"RequestFulfilled","inputs":[{"name":"id","type":"bytes32","indexed":true,"internalType":"bytes32"}],"anonymous":false},{"type":"event","name":"RequestSent","inputs":[{"name":"id","type":"bytes32","indexed":true,"internalType":"bytes32"}],"anonymous":false},{"type":"event","name":"TokenStored","inputs":[{"name":"user","type":"address","indexed":true,"internalType":"address"}],"anonymous":false},{"type":"event","name":"VerificationFailed","inputs":[{"name":"challengeId","type":"uint256","indexed":true,"internalType":"uint256"},{"name":"error","type":"bytes","indexed":false,"internalType":"bytes"}],"anonymous":false},{"type":"event","name":"VerificationFulfilled","inputs":[{"name":"challengeId","type":"uint256","indexed":true,"internalType":"uint256"},{"name":"miles","type":"uint256","indexed":false,"internalType":"uint256"},{"name":"success","type":"bool","indexed":false,"internalType":"bool"}],"anonymous":false},{"type":"event","name":"VerificationRequested","inputs":[{"name":"challengeId","type":"uint256","indexed":true,"internalType":"uint256"},{"name":"requestId","type":"bytes32","indexed":false,"internalType":"bytes32"}],"anonymous":false},{"type":"error","name":"AlreadyPending","inputs":[]},{"type":"error","name":"EmptyArgs","inputs":[]},{"type":"error","name":"EmptySource","inputs":[]},{"type":"error","name":"NoInlineSecrets","inputs":[]},{"type":"error","name":"NoTokenForUser","inputs":[]},{"type":"error","name":"NotOwner","inputs":[]},{"type":"error","name":"OnlyRouterCanFulfill","inputs":[]},{"type":"error","name":"UnexpectedRequestId","inputs":[{"name":"requestId","type":"bytes32","internalType":"bytes32"}]}],"bytecode":{"object":"0x60a0604052620493e0600360086101000a81548163ffffffff021916908363ffffffff16021790555034801562000034575f80fd5b5060405162003d2338038062003d2383398181016040528101906200005a919062000227565b838073ffffffffffffffffffffffffffffffffffffffff1660808173ffffffffffffffffffffffffffffffffffffffff168152505050825f806101000a81548173ffffffffffffffffffffffffffffffffffffffff021916908373ffffffffffffffffffffffffffffffffffffffff160217905550816002819055508060035f6101000a81548167ffffffffffffffff021916908367ffffffffffffffff1602179055503360015f6101000a81548173ffffffffffffffffffffffffffffffffffffffff021916908373ffffffffffffffffffffffffffffffffffffffff1602179055505050505062000296565b5f80fd5b5f73ffffffffffffffffffffffffffffffffffffffff82169050919050565b5f62000177826200014c565b9050919050565b62000189816200016b565b811462000194575f80fd5b50565b5f81519050620001a7816200017e565b92915050565b5f819050919050565b620001c181620001ad565b8114620001cc575f80fd5b50565b5f81519050620001df81620001b6565b92915050565b5f67ffffffffffffffff82169050919050565b6200020381620001e5565b81146200020e575f80fd5b50565b5f815190506200022181620001f8565b92915050565b5f805f806080858703121562000242576200024162000148565b5b5f620002518782880162000197565b9450506020620002648782880162000197565b93505060406200027787828801620001cf565b92505060606200028a8782880162000211565b91505092959194509250565b608051613a6d620002b65f395f818161043a0152611edd0152613a6d5ff3fe608060405234801561000f575f80fd5b5060043610610140575f3560e01c8063838c016a116100b65780639bb0f5991161007a5780639bb0f59914610361578063b698126914610391578063dac75c8e146103ad578063ea7b4f77146103c9578063f2fde38b146103e5578063f68016b71461040157610140565b8063838c016a146102bb5780638473925e146102d95780638da5cb5b146103095780638dbe7b9d1461032757806393253c0f1461034557610140565b806352d84c621161010857806352d84c62146101e8578063605aee6e146102045780636ce65c60146102225780636e04ff0d1461025257806378ca5de71461028357806383102c411461029f57610140565b806309c1ba2e146101445780630ca76175146101625780631f8221241461017e5780634585e33b1461019c5780635226bc37146101b8575b5f80fd5b61014c61041f565b6040516101599190612681565b60405180910390f35b61017c6004803603810190610177919061281a565b610438565b005b6101866104fa565b604051610193919061291c565b60405180910390f35b6101b660048036038101906101b19190612999565b610586565b005b6101d260048036038101906101cd9190612a17565b610a8d565b6040516101df9190612a5c565b60405180910390f35b61020260048036038101906101fd9190612aae565b610aaa565b005b61020c610b54565b6040516102199190612ae8565b60405180910390f35b61023c60048036038101906102379190612b5b565b610b5a565b6040516102499190612bd8565b60405180910390f35b61026c60048036038101906102679190612999565b610bf5565b60405161027a929190612bf8565b60405180910390f35b61029d60048036038101906102989190612c26565b610fbd565b005b6102b960048036038101906102b49190612ca6565b61104d565b005b6102c36110e1565b6040516102d09190612d4c565b60405180910390f35b6102f360048036038101906102ee9190612c26565b611104565b6040516103009190612ae8565b60405180910390f35b610311611119565b60405161031e9190612d74565b60405180910390f35b61032f61113e565b60405161033c9190612d9c565b60405180910390f35b61035f600480360381019061035a9190612999565b611144565b005b61037b60048036038101906103769190612b5b565b6111e0565b6040516103889190612a5c565b60405180910390f35b6103ab60048036038101906103a69190612db5565b611234565b005b6103c760048036038101906103c29190612b5b565b611420565b005b6103e360048036038101906103de9190612e1d565b6114e8565b005b6103ff60048036038101906103fa9190612b5b565b611599565b005b610409611662565b6040516104169190612e57565b60405180910390f35b60035f9054906101000a900467ffffffffffffffff1681565b7f000000000000000000000000000000000000000000000000000000000000000073ffffffffffffffffffffffffffffffffffffffff163373ffffffffffffffffffffffffffffffffffffffff16146104bd576040517fc6829f8300000000000000000000000000000000000000000000000000000000815260040160405180910390fd5b6104c8838383611678565b827f85e1543bf2f84fe80c6badbce3648c8539ad1df4d2b3d822938ca0538be727e660405160405180910390a2505050565b6004805461050790612e9d565b80601f016020809104026020016040519081016040528092919081815260200182805461053390612e9d565b801561057e5780601f106105555761010080835404028352916020019161057e565b820191905f5260205f20905b81548152906001019060200180831161056157829003601f168201915b505050505081565b5f82828101906105969190612a17565b90505f805f9054906101000a900473ffffffffffffffffffffffffffffffffffffffff1673ffffffffffffffffffffffffffffffffffffffff16631bdd4b74836040518263ffffffff1660e01b81526004016105f29190612ae8565b61010060405180830381865afa15801561060e573d5f803e3d5ffd5b505050506040513d601f19601f820116820180604052508101906106329190612fea565b90508060c0015115610679576040517f08c379a000000000000000000000000000000000000000000000000000000000815260040161067090613060565b60405180910390fd5b80608001514210156106c0576040517f08c379a00000000000000000000000000000000000000000000000000000000081526004016106b7906130c8565b60405180910390fd5b60075f8381526020019081526020015f205f9054906101000a900460ff161561071e576040517f08c379a000000000000000000000000000000000000000000000000000000000815260040161071590613130565b60405180910390fd5b5f60055f836020015173ffffffffffffffffffffffffffffffffffffffff1673ffffffffffffffffffffffffffffffffffffffff1681526020019081526020015f20805461076b90612e9d565b80601f016020809104026020016040519081016040528092919081815260200182805461079790612e9d565b80156107e25780601f106107b9576101008083540402835291602001916107e2565b820191905f5260205f20905b8154815290600101906020018083116107c557829003601f168201915b505050505090505f81511161082c576040517f08c379a000000000000000000000000000000000000000000000000000000000815260040161082390613198565b60405180910390fd5b600160075f8581526020019081526020015f205f6101000a81548160ff02191690831515021790555060018361086291906131e3565b6008819055506108706125b8565b61090b6004805461088090612e9d565b80601f01602080910402602001604051908101604052809291908181526020018280546108ac90612e9d565b80156108f75780601f106108ce576101008083540402835291602001916108f7565b820191905f5260205f20905b8154815290600101906020018083116108da57829003601f168201915b5050505050826118f390919063ffffffff16565b5f600367ffffffffffffffff811115610927576109266126f6565b5b60405190808252806020026020018201604052801561095a57816020015b60608152602001906001900390816109455790505b50905082815f8151811061097157610970613216565b5b602002602001018190525061099762278d0085608001516109929190613243565b611903565b816001815181106109ab576109aa613216565b5b60200260200101819052506109c38460800151611903565b816002815181106109d7576109d6613216565b5b60200260200101819052506109f58183611a8190919063ffffffff16565b5f610a33610a0284611ac8565b60035f9054906101000a900467ffffffffffffffff16600360089054906101000a900463ffffffff16600254611ed9565b90508560065f8381526020019081526020015f2081905550857f3ac587d230cd58f3d38021a58b3c4cfbfe6b007a06fc4d118f2b9726d8029f7382604051610a7b9190612d9c565b60405180910390a25050505050505050565b6007602052805f5260405f205f915054906101000a900460ff1681565b60015f9054906101000a900473ffffffffffffffffffffffffffffffffffffffff1673ffffffffffffffffffffffffffffffffffffffff163373ffffffffffffffffffffffffffffffffffffffff1614610b30576040517f30cd747100000000000000000000000000000000000000000000000000000000815260040160405180910390fd5b80600360086101000a81548163ffffffff021916908363ffffffff16021790555050565b60085481565b6005602052805f5260405f205f915090508054610b7690612e9d565b80601f0160208091040260200160405190810160405280929190818152602001828054610ba290612e9d565b8015610bed5780601f10610bc457610100808354040283529160200191610bed565b820191905f5260205f20905b815481529060010190602001808311610bd057829003601f168201915b505050505081565b5f60605f805f9054906101000a900473ffffffffffffffffffffffffffffffffffffffff1673ffffffffffffffffffffffffffffffffffffffff1663a2f057256040518163ffffffff1660e01b8152600401602060405180830381865afa158015610c62573d5f803e3d5ffd5b505050506040513d601f19601f82011682018060405250810190610c869190613276565b90505f60085490505b81811015610e0f575f805f9054906101000a900473ffffffffffffffffffffffffffffffffffffffff1673ffffffffffffffffffffffffffffffffffffffff16631bdd4b74836040518263ffffffff1660e01b8152600401610cf19190612ae8565b61010060405180830381865afa158015610d0d573d5f803e3d5ffd5b505050506040513d601f19601f82011682018060405250810190610d319190612fea565b90508060c00151158015610d60575060075f8381526020019081526020015f205f9054906101000a900460ff16155b8015610d70575080608001514210155b8015610dc857505f60055f836020015173ffffffffffffffffffffffffffffffffffffffff1673ffffffffffffffffffffffffffffffffffffffff1681526020019081526020015f208054610dc490612e9d565b9050115b15610dfb57600182604051602001610de09190612ae8565b60405160208183030381529060405294509450505050610fb6565b508080610e07906132a1565b915050610c8f565b505f5b60085481108015610e2257508181105b15610f9f575f805f9054906101000a900473ffffffffffffffffffffffffffffffffffffffff1673ffffffffffffffffffffffffffffffffffffffff16631bdd4b74836040518263ffffffff1660e01b8152600401610e819190612ae8565b61010060405180830381865afa158015610e9d573d5f803e3d5ffd5b505050506040513d601f19601f82011682018060405250810190610ec19190612fea565b90508060c00151158015610ef0575060075f8381526020019081526020015f205f9054906101000a900460ff16155b8015610f00575080608001514210155b8015610f5857505f60055f836020015173ffffffffffffffffffffffffffffffffffffffff1673ffffffffffffffffffffffffffffffffffffffff1681526020019081526020015f208054610f5490612e9d565b9050115b15610f8b57600182604051602001610f709190612ae8565b60405160208183030381529060405294509450505050610fb6565b508080610f97906132a1565b915050610e12565b505f60405180602001604052805f81525092509250505b9250929050565b60015f9054906101000a900473ffffffffffffffffffffffffffffffffffffffff1673ffffffffffffffffffffffffffffffffffffffff163373ffffffffffffffffffffffffffffffffffffffff1614611043576040517f30cd747100000000000000000000000000000000000000000000000000000000815260040160405180910390fd5b8060028190555050565b818160055f3373ffffffffffffffffffffffffffffffffffffffff1673ffffffffffffffffffffffffffffffffffffffff1681526020019081526020015f209182611099929190613486565b503373ffffffffffffffffffffffffffffffffffffffff167fd9052204b6e009a5b1732bf989b0390a8a93b3a39a5a37cbfd00980fca9eddec60405160405180910390a25050565b5f8054906101000a900473ffffffffffffffffffffffffffffffffffffffff1681565b6006602052805f5260405f205f915090505481565b60015f9054906101000a900473ffffffffffffffffffffffffffffffffffffffff1681565b60025481565b60015f9054906101000a900473ffffffffffffffffffffffffffffffffffffffff1673ffffffffffffffffffffffffffffffffffffffff163373ffffffffffffffffffffffffffffffffffffffff16146111ca576040517f30cd747100000000000000000000000000000000000000000000000000000000815260040160405180910390fd5b8181600491826111db9291906135b5565b505050565b5f8060055f8473ffffffffffffffffffffffffffffffffffffffff1673ffffffffffffffffffffffffffffffffffffffff1681526020019081526020015f20805461122a90612e9d565b9050119050919050565b60015f9054906101000a900473ffffffffffffffffffffffffffffffffffffffff1673ffffffffffffffffffffffffffffffffffffffff163373ffffffffffffffffffffffffffffffffffffffff16146112ba576040517f30cd747100000000000000000000000000000000000000000000000000000000815260040160405180910390fd5b5f8054906101000a900473ffffffffffffffffffffffffffffffffffffffff1673ffffffffffffffffffffffffffffffffffffffff1663602a29e183836040518363ffffffff1660e01b8152600401611314929190613682565b5f604051808303815f87803b15801561132b575f80fd5b505af115801561133d573d5f803e3d5ffd5b505050505f805f9054906101000a900473ffffffffffffffffffffffffffffffffffffffff1673ffffffffffffffffffffffffffffffffffffffff16631bdd4b74846040518263ffffffff1660e01b815260040161139b9190612ae8565b61010060405180830381865afa1580156113b7573d5f803e3d5ffd5b505050506040513d601f19601f820116820180604052508101906113db9190612fea565b9050827f3d0a3abfdece973e59bce2142b6ee032998e18b2088935a44c11feb2fe9b7f44838360e001516040516114139291906136a9565b60405180910390a2505050565b60015f9054906101000a900473ffffffffffffffffffffffffffffffffffffffff1673ffffffffffffffffffffffffffffffffffffffff163373ffffffffffffffffffffffffffffffffffffffff16146114a6576040517f30cd747100000000000000000000000000000000000000000000000000000000815260040160405180910390fd5b805f806101000a81548173ffffffffffffffffffffffffffffffffffffffff021916908373ffffffffffffffffffffffffffffffffffffffff16021790555050565b60015f9054906101000a900473ffffffffffffffffffffffffffffffffffffffff1673ffffffffffffffffffffffffffffffffffffffff163373ffffffffffffffffffffffffffffffffffffffff161461156e576040517f30cd747100000000000000000000000000000000000000000000000000000000815260040160405180910390fd5b8060035f6101000a81548167ffffffffffffffff021916908367ffffffffffffffff16021790555050565b60015f9054906101000a900473ffffffffffffffffffffffffffffffffffffffff1673ffffffffffffffffffffffffffffffffffffffff163373ffffffffffffffffffffffffffffffffffffffff161461161f576040517f30cd747100000000000000000000000000000000000000000000000000000000815260040160405180910390fd5b8060015f6101000a81548173ffffffffffffffffffffffffffffffffffffffff021916908373ffffffffffffffffffffffffffffffffffffffff16021790555050565b600360089054906101000a900463ffffffff1681565b5f60065f8581526020019081526020015f205490505f811480156116ad57505f60065f8681526020019081526020015f205414155b156116ef57836040517f7f73f2370000000000000000000000000000000000000000000000000000000081526004016116e69190612d9c565b60405180910390fd5b5f60075f8381526020019081526020015f205f6101000a81548160ff02191690831515021790555060065f8581526020019081526020015f205f90555f8251111561177257807f9142e85d9c1f838185609f829b0d73b5c329be9c5f508b821898268626a75a4383604051611764919061291c565b60405180910390a2506118ee565b5f838060200190518101906117879190613276565b90505f8054906101000a900473ffffffffffffffffffffffffffffffffffffffff1673ffffffffffffffffffffffffffffffffffffffff1663602a29e183836040518363ffffffff1660e01b81526004016117e3929190613682565b5f604051808303815f87803b1580156117fa575f80fd5b505af115801561180c573d5f803e3d5ffd5b505050505f805f9054906101000a900473ffffffffffffffffffffffffffffffffffffffff1673ffffffffffffffffffffffffffffffffffffffff16631bdd4b74846040518263ffffffff1660e01b815260040161186a9190612ae8565b61010060405180830381865afa158015611886573d5f803e3d5ffd5b505050506040513d601f19601f820116820180604052508101906118aa9190612fea565b9050827f3d0a3abfdece973e59bce2142b6ee032998e18b2088935a44c11feb2fe9b7f44838360e001516040516118e29291906136a9565b60405180910390a25050505b505050565b6118ff825f8084611fb8565b5050565b60605f8203611949576040518060400160405280600181526020017f30000000000000000000000000000000000000000000000000000000000000008152509050611a7c565b5f8290505f5b5f8214611978578080611961906132a1565b915050600a8261197191906136fd565b915061194f565b5f8167ffffffffffffffff811115611993576119926126f6565b5b6040519080825280601f01601f1916602001820160405280156119c55781602001600182028036833780820191505090505b5090505f8290505b5f8614611a74576001816119e19190613243565b90505f600a80886119f291906136fd565b6119fc919061372d565b87611a079190613243565b6030611a13919061377a565b90505f8160f81b905080848481518110611a3057611a2f613216565b5b60200101907effffffffffffffffffffffffffffffffffffffffffffffffffffffffffffff191690815f1a905350600a88611a6b91906136fd565b975050506119cd565b819450505050505b919050565b5f815103611abb576040517ffe936cb700000000000000000000000000000000000000000000000000000000815260040160405180910390fd5b808260a001819052505050565b60605f611ad661010061205e565b9050611b206040518060400160405280600c81526020017f636f64654c6f636174696f6e00000000000000000000000000000000000000008152508261208390919063ffffffff16565b611b48835f01516002811115611b3957611b386137ae565b5b826120ab90919063ffffffff16565b611b906040518060400160405280600881526020017f6c616e67756167650000000000000000000000000000000000000000000000008152508261208390919063ffffffff16565b611bb883604001515f811115611ba957611ba86137ae565b5b826120ab90919063ffffffff16565b611c006040518060400160405280600681526020017f736f7572636500000000000000000000000000000000000000000000000000008152508261208390919063ffffffff16565b611c1783606001518261208390919063ffffffff16565b5f8360a00151511115611cd157611c6c6040518060400160405280600481526020017f61726773000000000000000000000000000000000000000000000000000000008152508261208390919063ffffffff16565b611c75816120fa565b5f5b8360a0015151811015611cc657611cb58460a001518281518110611c9e57611c9d613216565b5b60200260200101518361208390919063ffffffff16565b80611cbf906132a1565b9050611c77565b50611cd081612122565b5b5f8360800151511115611e10575f6002811115611cf157611cf06137ae565b5b83602001516002811115611d0857611d076137ae565b5b03611d3f576040517fa80d31f700000000000000000000000000000000000000000000000000000000815260040160405180910390fd5b611d876040518060400160405280600f81526020017f736563726574734c6f636174696f6e00000000000000000000000000000000008152508261208390919063ffffffff16565b611db083602001516002811115611da157611da06137ae565b5b826120ab90919063ffffffff16565b611df86040518060400160405280600781526020017f73656372657473000000000000000000000000000000000000000000000000008152508261208390919063ffffffff16565b611e0f83608001518261214a90919063ffffffff16565b5b5f8360c00151511115611eca57611e656040518060400160405280600981526020017f62797465734172677300000000000000000000000000000000000000000000008152508261208390919063ffffffff16565b611e6e816120fa565b5f5b8360c0015151811015611ebf57611eae8460c001518281518110611e9757611e96613216565b5b60200260200101518361214a90919063ffffffff16565b80611eb8906132a1565b9050611e70565b50611ec981612122565b5b805f01515f0151915050919050565b5f807f000000000000000000000000000000000000000000000000000000000000000073ffffffffffffffffffffffffffffffffffffffff1663461d27628688600188886040518663ffffffff1660e01b8152600401611f3d9594939291906137f7565b6020604051808303815f875af1158015611f59573d5f803e3d5ffd5b505050506040513d601f19601f82011682018060405250810190611f7d9190613863565b9050807f1131472297a800fee664d1d89cfa8f7676ff07189ecc53f80bbb5f4969099db860405160405180910390a280915050949350505050565b5f815103611ff2576040517f22ce3edd00000000000000000000000000000000000000000000000000000000815260040160405180910390fd5b82845f01906002811115612009576120086137ae565b5b9081600281111561201d5761201c6137ae565b5b815250508184604001905f811115612038576120376137ae565b5b90815f81111561204b5761204a6137ae565b5b8152505080846060018190525050505050565b612066612627565b612073815f015183612172565b505f816020018181525050919050565b61209082600383516121e8565b6120a681835f015161238890919063ffffffff16565b505050565b6120cc60026005600660ff16901b17835f01516123a490919063ffffffff16565b506120f682826040516020016120e29190612ae8565b60405160208183030381529060405261214a565b5050565b61210581600461240b565b60018160200181815161211891906131e3565b9150818152505050565b61212d81600761240b565b6001816020018181516121409190613243565b9150818152505050565b61215782600283516121e8565b61216d81835f015161238890919063ffffffff16565b505050565b61217a612646565b5f602083612188919061388e565b146121b45760208261219a919061388e565b60206121a69190613243565b826121b191906131e3565b91505b818360200181815250506040518084525f8152828101602001818110156121d9575f80fd5b80604052505082905092915050565b60178167ffffffffffffffff16116122225761221c8160058460ff16901b60ff1617845f01516123a490919063ffffffff16565b50612383565b60ff8167ffffffffffffffff161161227e57612254601860058460ff16901b17845f01516123a490919063ffffffff16565b506122788167ffffffffffffffff166001855f01516124309092919063ffffffff16565b50612382565b61ffff8167ffffffffffffffff16116122db576122b1601960058460ff16901b17845f01516123a490919063ffffffff16565b506122d58167ffffffffffffffff166002855f01516124309092919063ffffffff16565b50612381565b63ffffffff8167ffffffffffffffff161161233a57612310601a60058460ff16901b17845f01516123a490919063ffffffff16565b506123348167ffffffffffffffff166004855f01516124309092919063ffffffff16565b50612380565b61235a601b60058460ff16901b17845f01516123a490919063ffffffff16565b5061237e8167ffffffffffffffff166008855f01516124309092919063ffffffff16565b505b5b5b5b505050565b612390612646565b61239c838384516124b9565b905092915050565b6123ac612646565b5f835f01515190505f6001826123c291906131e3565b9050846020015182106123e6576123e5856002836123e0919061372d565b612596565b5b845160208382010185815381518311156123fe578282525b5050849250505092915050565b61242b601f60058360ff16901b17835f01516123a490919063ffffffff16565b505050565b612438612646565b5f845f01515190505f818461244d91906131e3565b90508560200151811115612472576124718660028361246c919061372d565b612596565b5b5f60018561010061248391906139ed565b61248d9190613243565b9050865182810187831982511617815281518411156124aa578382525b50508693505050509392505050565b6124c1612646565b82518211156124ce575f80fd5b5f845f01515190505f83826124e391906131e3565b905085602001518111156125085761250786600283612502919061372d565b612596565b5b5f8087518051856020830101935080851115612522578482525b60208901925050505b60208610612569578051825260208261254491906131e3565b915060208161255391906131e3565b90506020866125629190613243565b955061252b565b5f6001876020036101000a0390508019825116818451168181178552505050879450505050509392505050565b5f825f015190506125a78383612172565b506125b28382612388565b50505050565b6040518060e001604052805f60028111156125d6576125d56137ae565b5b81526020015f60028111156125ee576125ed6137ae565b5b81526020015f80811115612605576126046137ae565b5b8152602001606081526020016060815260200160608152602001606081525090565b604051806040016040528061263a612646565b81526020015f81525090565b6040518060400160405280606081526020015f81525090565b5f67ffffffffffffffff82169050919050565b61267b8161265f565b82525050565b5f6020820190506126945f830184612672565b92915050565b5f604051905090565b5f80fd5b5f80fd5b5f819050919050565b6126bd816126ab565b81146126c7575f80fd5b50565b5f813590506126d8816126b4565b92915050565b5f80fd5b5f80fd5b5f601f19601f8301169050919050565b7f4e487b71000000000000000000000000000000000000000000000000000000005f52604160045260245ffd5b61272c826126e6565b810181811067ffffffffffffffff8211171561274b5761274a6126f6565b5b80604052505050565b5f61275d61269a565b90506127698282612723565b919050565b5f67ffffffffffffffff821115612788576127876126f6565b5b612791826126e6565b9050602081019050919050565b828183375f83830152505050565b5f6127be6127b98461276e565b612754565b9050828152602081018484840111156127da576127d96126e2565b5b6127e584828561279e565b509392505050565b5f82601f830112612801576128006126de565b5b81356128118482602086016127ac565b91505092915050565b5f805f60608486031215612831576128306126a3565b5b5f61283e868287016126ca565b935050602084013567ffffffffffffffff81111561285f5761285e6126a7565b5b61286b868287016127ed565b925050604084013567ffffffffffffffff81111561288c5761288b6126a7565b5b612898868287016127ed565b9150509250925092565b5f81519050919050565b5f82825260208201905092915050565b5f5b838110156128d95780820151818401526020810190506128be565b5f8484015250505050565b5f6128ee826128a2565b6128f881856128ac565b93506129088185602086016128bc565b612911816126e6565b840191505092915050565b5f6020820190508181035f83015261293481846128e4565b905092915050565b5f80fd5b5f80fd5b5f8083601f840112612959576129586126de565b5b8235905067ffffffffffffffff8111156129765761297561293c565b5b60208301915083600182028301111561299257612991612940565b5b9250929050565b5f80602083850312156129af576129ae6126a3565b5b5f83013567ffffffffffffffff8111156129cc576129cb6126a7565b5b6129d885828601612944565b92509250509250929050565b5f819050919050565b6129f6816129e4565b8114612a00575f80fd5b50565b5f81359050612a11816129ed565b92915050565b5f60208284031215612a2c57612a2b6126a3565b5b5f612a3984828501612a03565b91505092915050565b5f8115159050919050565b612a5681612a42565b82525050565b5f602082019050612a6f5f830184612a4d565b92915050565b5f63ffffffff82169050919050565b612a8d81612a75565b8114612a97575f80fd5b50565b5f81359050612aa881612a84565b92915050565b5f60208284031215612ac357612ac26126a3565b5b5f612ad084828501612a9a565b91505092915050565b612ae2816129e4565b82525050565b5f602082019050612afb5f830184612ad9565b92915050565b5f73ffffffffffffffffffffffffffffffffffffffff82169050919050565b5f612b2a82612b01565b9050919050565b612b3a81612b20565b8114612b44575f80fd5b50565b5f81359050612b5581612b31565b92915050565b5f60208284031215612b7057612b6f6126a3565b5b5f612b7d84828501612b47565b91505092915050565b5f81519050919050565b5f82825260208201905092915050565b5f612baa82612b86565b612bb48185612b90565b9350612bc48185602086016128bc565b612bcd816126e6565b840191505092915050565b5f6020820190508181035f830152612bf08184612ba0565b905092915050565b5f604082019050612c0b5f830185612a4d565b8181036020830152612c1d81846128e4565b90509392505050565b5f60208284031215612c3b57612c3a6126a3565b5b5f612c48848285016126ca565b91505092915050565b5f8083601f840112612c6657612c656126de565b5b8235905067ffffffffffffffff811115612c8357612c8261293c565b5b602083019150836001820283011115612c9f57612c9e612940565b5b9250929050565b5f8060208385031215612cbc57612cbb6126a3565b5b5f83013567ffffffffffffffff811115612cd957612cd86126a7565b5b612ce585828601612c51565b92509250509250929050565b5f819050919050565b5f612d14612d0f612d0a84612b01565b612cf1565b612b01565b9050919050565b5f612d2582612cfa565b9050919050565b5f612d3682612d1b565b9050919050565b612d4681612d2c565b82525050565b5f602082019050612d5f5f830184612d3d565b92915050565b612d6e81612b20565b82525050565b5f602082019050612d875f830184612d65565b92915050565b612d96816126ab565b82525050565b5f602082019050612daf5f830184612d8d565b92915050565b5f8060408385031215612dcb57612dca6126a3565b5b5f612dd885828601612a03565b9250506020612de985828601612a03565b9150509250929050565b612dfc8161265f565b8114612e06575f80fd5b50565b5f81359050612e1781612df3565b92915050565b5f60208284031215612e3257612e316126a3565b5b5f612e3f84828501612e09565b91505092915050565b612e5181612a75565b82525050565b5f602082019050612e6a5f830184612e48565b92915050565b7f4e487b71000000000000000000000000000000000000000000000000000000005f52602260045260245ffd5b5f6002820490506001821680612eb457607f821691505b602082108103612ec757612ec6612e70565b5b50919050565b5f80fd5b5f81519050612edf816129ed565b92915050565b5f81519050612ef381612b31565b92915050565b612f0281612a42565b8114612f0c575f80fd5b50565b5f81519050612f1d81612ef9565b92915050565b5f6101008284031215612f3957612f38612ecd565b5b612f44610100612754565b90505f612f5384828501612ed1565b5f830152506020612f6684828501612ee5565b6020830152506040612f7a84828501612ed1565b6040830152506060612f8e84828501612ed1565b6060830152506080612fa284828501612ed1565b60808301525060a0612fb684828501612ed1565b60a08301525060c0612fca84828501612f0f565b60c08301525060e0612fde84828501612f0f565b60e08301525092915050565b5f610100828403121561300057612fff6126a3565b5b5f61300d84828501612f23565b91505092915050565b7f416c726561647920736574746c656400000000000000000000000000000000005f82015250565b5f61304a600f83612b90565b915061305582613016565b602082019050919050565b5f6020820190508181035f8301526130778161303e565b9050919050565b7f4e6f742079657420646561646c696e65000000000000000000000000000000005f82015250565b5f6130b2601083612b90565b91506130bd8261307e565b602082019050919050565b5f6020820190508181035f8301526130df816130a6565b9050919050565b7f416c72656164792070656e64696e6700000000000000000000000000000000005f82015250565b5f61311a600f83612b90565b9150613125826130e6565b602082019050919050565b5f6020820190508181035f8301526131478161310e565b9050919050565b7f4e6f20746f6b656e0000000000000000000000000000000000000000000000005f82015250565b5f613182600883612b90565b915061318d8261314e565b602082019050919050565b5f6020820190508181035f8301526131af81613176565b9050919050565b7f4e487b71000000000000000000000000000000000000000000000000000000005f52601160045260245ffd5b5f6131ed826129e4565b91506131f8836129e4565b92508282019050808211156132105761320f6131b6565b5b92915050565b7f4e487b71000000000000000000000000000000000000000000000000000000005f52603260045260245ffd5b5f61324d826129e4565b9150613258836129e4565b92508282039050818111156132705761326f6131b6565b5b92915050565b5f6020828403121561328b5761328a6126a3565b5b5f61329884828501612ed1565b91505092915050565b5f6132ab826129e4565b91507fffffffffffffffffffffffffffffffffffffffffffffffffffffffffffffffff82036132dd576132dc6131b6565b5b600182019050919050565b5f82905092915050565b5f819050815f5260205f209050919050565b5f6020601f8301049050919050565b5f82821b905092915050565b5f6008830261334e7fffffffffffffffffffffffffffffffffffffffffffffffffffffffffffffffff82613313565b6133588683613313565b95508019841693508086168417925050509392505050565b5f61338a613385613380846129e4565b612cf1565b6129e4565b9050919050565b5f819050919050565b6133a383613370565b6133b76133af82613391565b84845461331f565b825550505050565b5f90565b6133cb6133bf565b6133d681848461339a565b505050565b5b818110156133f9576133ee5f826133c3565b6001810190506133dc565b5050565b601f82111561343e5761340f816132f2565b61341884613304565b81016020851015613427578190505b61343b61343385613304565b8301826133db565b50505b505050565b5f82821c905092915050565b5f61345e5f1984600802613443565b1980831691505092915050565b5f613476838361344f565b9150826002028217905092915050565b61349083836132e8565b67ffffffffffffffff8111156134a9576134a86126f6565b5b6134b38254612e9d565b6134be8282856133fd565b5f601f8311600181146134eb575f84156134d9578287013590505b6134e3858261346b565b86555061354a565b601f1984166134f9866132f2565b5f5b82811015613520578489013582556001820191506020850194506020810190506134fb565b8683101561353d5784890135613539601f89168261344f565b8355505b6001600288020188555050505b50505050505050565b5f82905092915050565b5f819050815f5260205f209050919050565b601f8211156135b0576135818161355d565b61358a84613304565b81016020851015613599578190505b6135ad6135a585613304565b8301826133db565b50505b505050565b6135bf8383613553565b67ffffffffffffffff8111156135d8576135d76126f6565b5b6135e28254612e9d565b6135ed82828561356f565b5f601f83116001811461361a575f8415613608578287013590505b613612858261346b565b865550613679565b601f1984166136288661355d565b5f5b8281101561364f5784890135825560018201915060208501945060208101905061362a565b8683101561366c5784890135613668601f89168261344f565b8355505b6001600288020188555050505b50505050505050565b5f6040820190506136955f830185612ad9565b6136a26020830184612ad9565b9392505050565b5f6040820190506136bc5f830185612ad9565b6136c96020830184612a4d565b9392505050565b7f4e487b71000000000000000000000000000000000000000000000000000000005f52601260045260245ffd5b5f613707826129e4565b9150613712836129e4565b925082613722576137216136d0565b5b828204905092915050565b5f613737826129e4565b9150613742836129e4565b9250828202613750816129e4565b91508282048414831517613767576137666131b6565b5b5092915050565b5f60ff82169050919050565b5f6137848261376e565b915061378f8361376e565b9250828201905060ff8111156137a8576137a76131b6565b5b92915050565b7f4e487b71000000000000000000000000000000000000000000000000000000005f52602160045260245ffd5b5f61ffff82169050919050565b6137f1816137db565b82525050565b5f60a08201905061380a5f830188612672565b818103602083015261381c81876128e4565b905061382b60408301866137e8565b6138386060830185612e48565b6138456080830184612d8d565b9695505050505050565b5f8151905061385d816126b4565b92915050565b5f60208284031215613878576138776126a3565b5b5f6138858482850161384f565b91505092915050565b5f613898826129e4565b91506138a3836129e4565b9250826138b3576138b26136d0565b5b828206905092915050565b5f8160011c9050919050565b5f808291508390505b6001851115613913578086048111156138ef576138ee6131b6565b5b60018516156138fe5780820291505b808102905061390c856138be565b94506138d3565b94509492505050565b5f8261392b57600190506139e6565b81613938575f90506139e6565b816001811461394e576002811461395857613987565b60019150506139e6565b60ff84111561396a576139696131b6565b5b8360020a915084821115613981576139806131b6565b5b506139e6565b5060208310610133831016604e8410600b84101617156139bc5782820a9050838111156139b7576139b66131b6565b5b6139e6565b6139c984848460016138ca565b925090508184048111156139e0576139df6131b6565b5b81810290505b9392505050565b5f6139f7826129e4565b9150613a02836129e4565b9250613a2f7fffffffffffffffffffffffffffffffffffffffffffffffffffffffffffffffff848461391c565b90509291505056fea264697066735822122099fc2d8245c416386e12c0f26f3e5b3549fcc7327e0e6352ba7587bb088534e164736f6c63430008140033","linkReferences":{}},"methodIdentifiers":{"checkUpkeep(bytes)":"6e04ff0d","donId()":"8dbe7b9d","functionsSource()":"1f822124","gasLimit()":"f68016b7","goalStake()":"838c016a","handleOracleFulfillment(bytes32,bytes,bytes)":"0ca76175","hasToken(address)":"9bb0f599","lastCheckedId()":"605aee6e","manualVerify(uint256,uint256)":"b6981269","owner()":"8da5cb5b","pendingVerification(uint256)":"5226bc37","performUpkeep(bytes)":"4585e33b","requestToChallengeId(bytes32)":"8473925e","setDonId(bytes32)":"78ca5de7","setFunctionsSource(bytes)":"93253c0f","setGasLimit(uint32)":"52d84c62","setGoalStake(address)":"dac75c8e","setSubscriptionId(uint64)":"ea7b4f77","storeToken(string)":"83102c41","stravaTokens(address)":"6ce65c60","subscriptionId()":"09c1ba2e","transferOwnership(address)":"f2fde38b"},"id":10}